{
  "address": "0xe7f1725E7734CE288F8367e1Bb143E90bb3F0512",
  "abi": [
    {
      "inputs": [],
      "stateMutability": "nonpayable",
      "type": "constructor"
    },
    {
      "inputs": [
        {
          "internalType": "address",
          "name": "sender",
          "type": "address"
        },
        {
          "internalType": "uint256",
          "name": "tokenId",
          "type": "uint256"
        },
        {
          "internalType": "address",
          "name": "owner",
          "type": "address"
        }
      ],
      "name": "ERC721IncorrectOwner",
      "type": "error"
    },
    {
      "inputs": [
        {
          "internalType": "address",
          "name": "operator",
          "type": "address"
        },
        {
          "internalType": "uint256",
          "name": "tokenId",
          "type": "uint256"
        }
      ],
      "name": "ERC721InsufficientApproval",
      "type": "error"
    },
    {
      "inputs": [
        {
          "internalType": "address",
          "name": "approver",
          "type": "address"
        }
      ],
      "name": "ERC721InvalidApprover",
      "type": "error"
    },
    {
      "inputs": [
        {
          "internalType": "address",
          "name": "operator",
          "type": "address"
        }
      ],
      "name": "ERC721InvalidOperator",
      "type": "error"
    },
    {
      "inputs": [
        {
          "internalType": "address",
          "name": "owner",
          "type": "address"
        }
      ],
      "name": "ERC721InvalidOwner",
      "type": "error"
    },
    {
      "inputs": [
        {
          "internalType": "address",
          "name": "receiver",
          "type": "address"
        }
      ],
      "name": "ERC721InvalidReceiver",
      "type": "error"
    },
    {
      "inputs": [
        {
          "internalType": "address",
          "name": "sender",
          "type": "address"
        }
      ],
      "name": "ERC721InvalidSender",
      "type": "error"
    },
    {
      "inputs": [
        {
          "internalType": "uint256",
          "name": "tokenId",
          "type": "uint256"
        }
      ],
      "name": "ERC721NonexistentToken",
      "type": "error"
    },
    {
      "anonymous": false,
      "inputs": [
        {
          "indexed": true,
          "internalType": "address",
          "name": "owner",
          "type": "address"
        },
        {
          "indexed": true,
          "internalType": "address",
          "name": "approved",
          "type": "address"
        },
        {
          "indexed": true,
          "internalType": "uint256",
          "name": "tokenId",
          "type": "uint256"
        }
      ],
      "name": "Approval",
      "type": "event"
    },
    {
      "anonymous": false,
      "inputs": [
        {
          "indexed": true,
          "internalType": "address",
          "name": "owner",
          "type": "address"
        },
        {
          "indexed": true,
          "internalType": "address",
          "name": "operator",
          "type": "address"
        },
        {
          "indexed": false,
          "internalType": "bool",
          "name": "approved",
          "type": "bool"
        }
      ],
      "name": "ApprovalForAll",
      "type": "event"
    },
    {
      "anonymous": false,
      "inputs": [
        {
          "indexed": true,
          "internalType": "address",
          "name": "from",
          "type": "address"
        },
        {
          "indexed": true,
          "internalType": "address",
          "name": "to",
          "type": "address"
        },
        {
          "indexed": true,
          "internalType": "uint256",
          "name": "tokenId",
          "type": "uint256"
        }
      ],
      "name": "Transfer",
      "type": "event"
    },
    {
      "inputs": [
        {
          "internalType": "address",
          "name": "to",
          "type": "address"
        },
        {
          "internalType": "uint256",
          "name": "tokenId",
          "type": "uint256"
        }
      ],
      "name": "approve",
      "outputs": [],
      "stateMutability": "nonpayable",
      "type": "function"
    },
    {
      "inputs": [
        {
          "internalType": "address",
          "name": "owner",
          "type": "address"
        }
      ],
      "name": "balanceOf",
      "outputs": [
        {
          "internalType": "uint256",
          "name": "",
          "type": "uint256"
        }
      ],
      "stateMutability": "view",
      "type": "function"
    },
    {
      "inputs": [
        {
          "internalType": "uint256",
          "name": "id",
          "type": "uint256"
        },
        {
          "internalType": "uint256",
          "name": "seat",
          "type": "uint256"
        }
      ],
      "name": "buyTicket",
      "outputs": [],
      "stateMutability": "payable",
      "type": "function"
    },
    {
      "inputs": [
        {
          "internalType": "uint256",
          "name": "tokenId",
          "type": "uint256"
        }
      ],
      "name": "getApproved",
      "outputs": [
        {
          "internalType": "address",
          "name": "",
          "type": "address"
        }
      ],
      "stateMutability": "view",
      "type": "function"
    },
    {
      "inputs": [
        {
          "internalType": "uint256",
          "name": "id",
          "type": "uint256"
        }
      ],
      "name": "getEvent",
      "outputs": [
        {
          "components": [
            {
              "internalType": "uint256",
              "name": "id",
              "type": "uint256"
            },
            {
              "internalType": "string",
              "name": "name",
              "type": "string"
            },
            {
              "internalType": "uint256",
              "name": "cost",
              "type": "uint256"
            },
            {
              "internalType": "uint256",
              "name": "tickets",
              "type": "uint256"
            },
            {
              "internalType": "uint256",
              "name": "maxTickets",
              "type": "uint256"
            },
            {
              "internalType": "string",
              "name": "date",
              "type": "string"
            },
            {
              "internalType": "string",
              "name": "time",
              "type": "string"
            },
            {
              "internalType": "string",
              "name": "location",
              "type": "string"
            }
          ],
          "internalType": "struct TicketsPlug.Event",
          "name": "",
          "type": "tuple"
        }
      ],
      "stateMutability": "view",
      "type": "function"
    },
    {
      "inputs": [
        {
          "internalType": "uint256",
          "name": "id",
          "type": "uint256"
        }
      ],
      "name": "getTakenSeats",
      "outputs": [
        {
          "internalType": "uint256[]",
          "name": "",
          "type": "uint256[]"
        }
      ],
      "stateMutability": "view",
      "type": "function"
    },
    {
      "inputs": [
        {
          "internalType": "uint256",
          "name": "",
          "type": "uint256"
        },
        {
          "internalType": "address",
          "name": "",
          "type": "address"
        }
      ],
      "name": "hasTicket",
      "outputs": [
        {
          "internalType": "bool",
          "name": "",
          "type": "bool"
        }
      ],
      "stateMutability": "view",
      "type": "function"
    },
    {
      "inputs": [
        {
          "internalType": "address",
          "name": "owner",
          "type": "address"
        },
        {
          "internalType": "address",
          "name": "operator",
          "type": "address"
        }
      ],
      "name": "isApprovedForAll",
      "outputs": [
        {
          "internalType": "bool",
          "name": "",
          "type": "bool"
        }
      ],
      "stateMutability": "view",
      "type": "function"
    },
    {
      "inputs": [
        {
          "internalType": "string",
          "name": "name",
          "type": "string"
        },
        {
          "internalType": "uint256",
          "name": "cost",
          "type": "uint256"
        },
        {
          "internalType": "uint256",
          "name": "maxTickets",
          "type": "uint256"
        },
        {
          "internalType": "string",
          "name": "date",
          "type": "string"
        },
        {
          "internalType": "string",
          "name": "time",
          "type": "string"
        },
        {
          "internalType": "string",
          "name": "location",
          "type": "string"
        }
      ],
      "name": "listEvents",
      "outputs": [],
      "stateMutability": "nonpayable",
      "type": "function"
    },
    {
      "inputs": [],
      "name": "name",
      "outputs": [
        {
          "internalType": "string",
          "name": "",
          "type": "string"
        }
      ],
      "stateMutability": "view",
      "type": "function"
    },
    {
      "inputs": [
        {
          "internalType": "uint256",
          "name": "tokenId",
          "type": "uint256"
        }
      ],
      "name": "ownerOf",
      "outputs": [
        {
          "internalType": "address",
          "name": "",
          "type": "address"
        }
      ],
      "stateMutability": "view",
      "type": "function"
    },
    {
      "inputs": [
        {
          "internalType": "address",
          "name": "from",
          "type": "address"
        },
        {
          "internalType": "address",
          "name": "to",
          "type": "address"
        },
        {
          "internalType": "uint256",
          "name": "tokenId",
          "type": "uint256"
        }
      ],
      "name": "safeTransferFrom",
      "outputs": [],
      "stateMutability": "nonpayable",
      "type": "function"
    },
    {
      "inputs": [
        {
          "internalType": "address",
          "name": "from",
          "type": "address"
        },
        {
          "internalType": "address",
          "name": "to",
          "type": "address"
        },
        {
          "internalType": "uint256",
          "name": "tokenId",
          "type": "uint256"
        },
        {
          "internalType": "bytes",
          "name": "data",
          "type": "bytes"
        }
      ],
      "name": "safeTransferFrom",
      "outputs": [],
      "stateMutability": "nonpayable",
      "type": "function"
    },
    {
      "inputs": [
        {
          "internalType": "uint256",
          "name": "",
          "type": "uint256"
        },
        {
          "internalType": "uint256",
          "name": "",
          "type": "uint256"
        }
      ],
      "name": "seatOwner",
      "outputs": [
        {
          "internalType": "address",
          "name": "",
          "type": "address"
        }
      ],
      "stateMutability": "view",
      "type": "function"
    },
    {
      "inputs": [
        {
          "internalType": "address",
          "name": "operator",
          "type": "address"
        },
        {
          "internalType": "bool",
          "name": "approved",
          "type": "bool"
        }
      ],
      "name": "setApprovalForAll",
      "outputs": [],
      "stateMutability": "nonpayable",
      "type": "function"
    },
    {
      "inputs": [
        {
          "internalType": "bytes4",
          "name": "interfaceId",
          "type": "bytes4"
        }
      ],
      "name": "supportsInterface",
      "outputs": [
        {
          "internalType": "bool",
          "name": "",
          "type": "bool"
        }
      ],
      "stateMutability": "view",
      "type": "function"
    },
    {
      "inputs": [],
      "name": "symbol",
      "outputs": [
        {
          "internalType": "string",
          "name": "",
          "type": "string"
        }
      ],
      "stateMutability": "view",
      "type": "function"
    },
    {
      "inputs": [
        {
          "internalType": "uint256",
          "name": "tokenId",
          "type": "uint256"
        }
      ],
      "name": "tokenURI",
      "outputs": [
        {
          "internalType": "string",
          "name": "",
          "type": "string"
        }
      ],
      "stateMutability": "view",
      "type": "function"
    },
    {
      "inputs": [],
      "name": "totalEvents",
      "outputs": [
        {
          "internalType": "uint256",
          "name": "",
          "type": "uint256"
        }
      ],
      "stateMutability": "view",
      "type": "function"
    },
    {
      "inputs": [
        {
          "internalType": "address",
          "name": "from",
          "type": "address"
        },
        {
          "internalType": "address",
          "name": "to",
          "type": "address"
        },
        {
          "internalType": "uint256",
          "name": "tokenId",
          "type": "uint256"
        }
      ],
      "name": "transferFrom",
      "outputs": [],
      "stateMutability": "nonpayable",
      "type": "function"
    },
    {
      "inputs": [],
      "name": "withdraw",
      "outputs": [],
      "stateMutability": "nonpayable",
      "type": "function"
    }
  ],
  "transactionHash": "0xbf758d55d15b71c7775d66a3ea52aa31fc9e847d90ed39dbda0c1f6e2525b802",
  "args": [],
  "numDeployments": 2,
  "solcInputHash": "4e07406bdd501364150d35f66c90737a",
  "bytecode": "0x60a06040523480156200001157600080fd5b506040518060400160405280600681526020017f5469636b657400000000000000000000000000000000000000000000000000008152506040518060400160405280600381526020017f544b54000000000000000000000000000000000000000000000000000000000081525081600090816200008f919062000358565b508060019081620000a1919062000358565b5050503373ffffffffffffffffffffffffffffffffffffffff1660808173ffffffffffffffffffffffffffffffffffffffff16815250506200043f565b600081519050919050565b7f4e487b7100000000000000000000000000000000000000000000000000000000600052604160045260246000fd5b7f4e487b7100000000000000000000000000000000000000000000000000000000600052602260045260246000fd5b600060028204905060018216806200016057607f821691505b60208210810362000176576200017562000118565b5b50919050565b60008190508160005260206000209050919050565b60006020601f8301049050919050565b600082821b905092915050565b600060088302620001e07fffffffffffffffffffffffffffffffffffffffffffffffffffffffffffffffff82620001a1565b620001ec8683620001a1565b95508019841693508086168417925050509392505050565b6000819050919050565b6000819050919050565b600062000239620002336200022d8462000204565b6200020e565b62000204565b9050919050565b6000819050919050565b620002558362000218565b6200026d620002648262000240565b848454620001ae565b825550505050565b600090565b6200028462000275565b620002918184846200024a565b505050565b5b81811015620002b957620002ad6000826200027a565b60018101905062000297565b5050565b601f8211156200030857620002d2816200017c565b620002dd8462000191565b81016020851015620002ed578190505b62000305620002fc8562000191565b83018262000296565b50505b505050565b600082821c905092915050565b60006200032d600019846008026200030d565b1980831691505092915050565b60006200034883836200031a565b9150826002028217905092915050565b6200036382620000de565b67ffffffffffffffff8111156200037f576200037e620000e9565b5b6200038b825462000147565b62000398828285620002bd565b600060209050601f831160018114620003d05760008415620003bb578287015190505b620003c785826200033a565b86555062000437565b601f198416620003e0866200017c565b60005b828110156200040a57848901518255600182019150602085019450602081019050620003e3565b868310156200042a578489015162000426601f8916826200031a565b8355505b6001600288020188555050505b505050505050565b6080516135af6200046960003960008181610c2901528181610cb9015261134901526135af6000f3fe60806040526004361061012a5760003560e01c80636352211e116100ab578063b88d4fde1161006f578063b88d4fde14610407578063ba87068614610430578063bcec36c01461045b578063c87b56dd14610498578063e985e9c5146104d5578063f10a1a95146105125761012a565b80636352211e146102fc5780636d1884e01461033957806370a082311461037657806395d89b41146103b3578063a22cb465146103de5761012a565b806323b872dd116100f257806323b872dd1461023a578063298ec208146102635780633ccfd60b1461027f57806342842e0e146102965780634843d2b1146102bf5761012a565b80630106b45f1461012f57806301ffc9a71461016c57806306fdde03146101a9578063081812fc146101d4578063095ea7b314610211575b600080fd5b34801561013b57600080fd5b50610156600480360381019061015191906122d3565b61053b565b60405161016391906123be565b60405180910390f35b34801561017857600080fd5b50610193600480360381019061018e9190612438565b6105a6565b6040516101a09190612480565b60405180910390f35b3480156101b557600080fd5b506101be610688565b6040516101cb919061252b565b60405180910390f35b3480156101e057600080fd5b506101fb60048036038101906101f691906122d3565b61071a565b604051610208919061258e565b60405180910390f35b34801561021d57600080fd5b50610238600480360381019061023391906125d5565b610736565b005b34801561024657600080fd5b50610261600480360381019061025c9190612615565b61074c565b005b61027d60048036038101906102789190612668565b61084e565b005b34801561028b57600080fd5b50610294610c27565b005b3480156102a257600080fd5b506102bd60048036038101906102b89190612615565b610d84565b005b3480156102cb57600080fd5b506102e660048036038101906102e191906126a8565b610da4565b6040516102f39190612480565b60405180910390f35b34801561030857600080fd5b50610323600480360381019061031e91906122d3565b610dd3565b604051610330919061258e565b60405180910390f35b34801561034557600080fd5b50610360600480360381019061035b91906122d3565b610de5565b60405161036d91906127f7565b60405180910390f35b34801561038257600080fd5b5061039d60048036038101906103989190612819565b611083565b6040516103aa9190612855565b60405180910390f35b3480156103bf57600080fd5b506103c861113d565b6040516103d5919061252b565b60405180910390f35b3480156103ea57600080fd5b506104056004803603810190610400919061289c565b6111cf565b005b34801561041357600080fd5b5061042e60048036038101906104299190612a11565b6111e5565b005b34801561043c57600080fd5b50610445611202565b6040516104529190612855565b60405180910390f35b34801561046757600080fd5b50610482600480360381019061047d9190612668565b611208565b60405161048f919061258e565b60405180910390f35b3480156104a457600080fd5b506104bf60048036038101906104ba91906122d3565b61124a565b6040516104cc919061252b565b60405180910390f35b3480156104e157600080fd5b506104fc60048036038101906104f79190612a94565b6112b3565b6040516105099190612480565b60405180910390f35b34801561051e57600080fd5b5061053960048036038101906105349190612b75565b611347565b005b60606009600083815260200190815260200160002080548060200260200160405190810160405280929190818152602001828054801561059a57602002820191906000526020600020905b815481526020019060010190808311610586575b50505050509050919050565b60007f80ac58cd000000000000000000000000000000000000000000000000000000007bffffffffffffffffffffffffffffffffffffffffffffffffffffffff1916827bffffffffffffffffffffffffffffffffffffffffffffffffffffffff1916148061067157507f5b5e139f000000000000000000000000000000000000000000000000000000007bffffffffffffffffffffffffffffffffffffffffffffffffffffffff1916827bffffffffffffffffffffffffffffffffffffffffffffffffffffffff1916145b806106815750610680826114c9565b5b9050919050565b60606000805461069790612ca1565b80601f01602080910402602001604051908101604052809291908181526020018280546106c390612ca1565b80156107105780601f106106e557610100808354040283529160200191610710565b820191906000526020600020905b8154815290600101906020018083116106f357829003601f168201915b5050505050905090565b600061072582611533565b5061072f826115bb565b9050919050565b61074882826107436115f8565b611600565b5050565b600073ffffffffffffffffffffffffffffffffffffffff168273ffffffffffffffffffffffffffffffffffffffff16036107be5760006040517f64a0ae920000000000000000000000000000000000000000000000000000000081526004016107b5919061258e565b60405180910390fd5b60006107d283836107cd6115f8565b611612565b90508373ffffffffffffffffffffffffffffffffffffffff168173ffffffffffffffffffffffffffffffffffffffff1614610848578382826040517f64283d7b00000000000000000000000000000000000000000000000000000000815260040161083f93929190612cd2565b60405180910390fd5b50505050565b6000820361085b57600080fd5b60065482111561086a57600080fd5b60086000838152602001908152602001600020600201543410156108c3576040517f08c379a00000000000000000000000000000000000000000000000000000000081526004016108ba90612d55565b60405180910390fd5b600060086000848152602001908152602001600020600301541161091c576040517f08c379a000000000000000000000000000000000000000000000000000000000815260040161091390612dc1565b60405180910390fd5b60001515600a600084815260200190815260200160002060003373ffffffffffffffffffffffffffffffffffffffff1673ffffffffffffffffffffffffffffffffffffffff16815260200190815260200160002060009054906101000a900460ff161515146109c0576040517f08c379a00000000000000000000000000000000000000000000000000000000081526004016109b790612e53565b60405180910390fd5b600073ffffffffffffffffffffffffffffffffffffffff16600b6000848152602001908152602001600020600083815260200190815260200160002060009054906101000a900473ffffffffffffffffffffffffffffffffffffffff1673ffffffffffffffffffffffffffffffffffffffff1614610a73576040517f08c379a0000000000000000000000000000000000000000000000000000000008152600401610a6a90612ee5565b60405180910390fd5b60086000838152602001908152602001600020600401548110610acb576040517f08c379a0000000000000000000000000000000000000000000000000000000008152600401610ac290612f51565b60405180910390fd5b6001600860008481526020019081526020016000206003016000828254610af29190612fa0565b9250508190555033600b6000848152602001908152602001600020600083815260200190815260200160002060006101000a81548173ffffffffffffffffffffffffffffffffffffffff021916908373ffffffffffffffffffffffffffffffffffffffff1602179055506001600a600084815260200190815260200160002060003373ffffffffffffffffffffffffffffffffffffffff1673ffffffffffffffffffffffffffffffffffffffff16815260200190815260200160002060006101000a81548160ff0219169083151502179055506009600083815260200190815260200160002081908060018154018082558091505060019003906000526020600020016000909190919091505560076000815480929190610c1290612fd4565b9190505550610c233360075461182c565b5050565b7f000000000000000000000000000000000000000000000000000000000000000073ffffffffffffffffffffffffffffffffffffffff163373ffffffffffffffffffffffffffffffffffffffff1614610cb5576040517f08c379a0000000000000000000000000000000000000000000000000000000008152600401610cac9061308e565b60405180910390fd5b60007f000000000000000000000000000000000000000000000000000000000000000073ffffffffffffffffffffffffffffffffffffffff1647604051610cfb906130df565b60006040518083038185875af1925050503d8060008114610d38576040519150601f19603f3d011682016040523d82523d6000602084013e610d3d565b606091505b5050905080610d81576040517f08c379a0000000000000000000000000000000000000000000000000000000008152600401610d7890613140565b60405180910390fd5b50565b610d9f838383604051806020016040528060008152506111e5565b505050565b600a6020528160005260406000206020528060005260406000206000915091509054906101000a900460ff1681565b6000610dde82611533565b9050919050565b610ded612244565b600860008381526020019081526020016000206040518061010001604052908160008201548152602001600182018054610e2690612ca1565b80601f0160208091040260200160405190810160405280929190818152602001828054610e5290612ca1565b8015610e9f5780601f10610e7457610100808354040283529160200191610e9f565b820191906000526020600020905b815481529060010190602001808311610e8257829003601f168201915b50505050508152602001600282015481526020016003820154815260200160048201548152602001600582018054610ed690612ca1565b80601f0160208091040260200160405190810160405280929190818152602001828054610f0290612ca1565b8015610f4f5780601f10610f2457610100808354040283529160200191610f4f565b820191906000526020600020905b815481529060010190602001808311610f3257829003601f168201915b50505050508152602001600682018054610f6890612ca1565b80601f0160208091040260200160405190810160405280929190818152602001828054610f9490612ca1565b8015610fe15780601f10610fb657610100808354040283529160200191610fe1565b820191906000526020600020905b815481529060010190602001808311610fc457829003601f168201915b50505050508152602001600782018054610ffa90612ca1565b80601f016020809104026020016040519081016040528092919081815260200182805461102690612ca1565b80156110735780601f1061104857610100808354040283529160200191611073565b820191906000526020600020905b81548152906001019060200180831161105657829003601f168201915b5050505050815250509050919050565b60008073ffffffffffffffffffffffffffffffffffffffff168273ffffffffffffffffffffffffffffffffffffffff16036110f65760006040517f89c62b640000000000000000000000000000000000000000000000000000000081526004016110ed919061258e565b60405180910390fd5b600360008373ffffffffffffffffffffffffffffffffffffffff1673ffffffffffffffffffffffffffffffffffffffff168152602001908152602001600020549050919050565b60606001805461114c90612ca1565b80601f016020809104026020016040519081016040528092919081815260200182805461117890612ca1565b80156111c55780601f1061119a576101008083540402835291602001916111c5565b820191906000526020600020905b8154815290600101906020018083116111a857829003601f168201915b5050505050905090565b6111e16111da6115f8565b838361184a565b5050565b6111f084848461074c565b6111fc848484846119b9565b50505050565b60065481565b600b6020528160005260406000206020528060005260406000206000915091509054906101000a900473ffffffffffffffffffffffffffffffffffffffff1681565b606061125582611533565b506000611260611b70565b9050600081511161128057604051806020016040528060008152506112ab565b8061128a84611b87565b60405160200161129b92919061319c565b6040516020818303038152906040525b915050919050565b6000600560008473ffffffffffffffffffffffffffffffffffffffff1673ffffffffffffffffffffffffffffffffffffffff16815260200190815260200160002060008373ffffffffffffffffffffffffffffffffffffffff1673ffffffffffffffffffffffffffffffffffffffff16815260200190815260200160002060009054906101000a900460ff16905092915050565b7f000000000000000000000000000000000000000000000000000000000000000073ffffffffffffffffffffffffffffffffffffffff163373ffffffffffffffffffffffffffffffffffffffff16146113d5576040517f08c379a00000000000000000000000000000000000000000000000000000000081526004016113cc9061308e565b60405180910390fd5b600660008154809291906113e890612fd4565b919050555060405180610100016040528060065481526020018781526020018681526020018581526020018581526020018481526020018381526020018281525060086000600654815260200190815260200160002060008201518160000155602082015181600101908161145d919061336c565b5060408201518160020155606082015181600301556080820151816004015560a0820151816005019081611491919061336c565b5060c08201518160060190816114a7919061336c565b5060e08201518160070190816114bd919061336c565b50905050505050505050565b60007f01ffc9a7000000000000000000000000000000000000000000000000000000007bffffffffffffffffffffffffffffffffffffffffffffffffffffffff1916827bffffffffffffffffffffffffffffffffffffffffffffffffffffffff1916149050919050565b60008061153f83611c55565b9050600073ffffffffffffffffffffffffffffffffffffffff168173ffffffffffffffffffffffffffffffffffffffff16036115b257826040517f7e2732890000000000000000000000000000000000000000000000000000000081526004016115a99190612855565b60405180910390fd5b80915050919050565b60006004600083815260200190815260200160002060009054906101000a900473ffffffffffffffffffffffffffffffffffffffff169050919050565b600033905090565b61160d8383836001611c92565b505050565b60008061161e84611c55565b9050600073ffffffffffffffffffffffffffffffffffffffff168373ffffffffffffffffffffffffffffffffffffffff16146116605761165f818486611e57565b5b600073ffffffffffffffffffffffffffffffffffffffff168173ffffffffffffffffffffffffffffffffffffffff16146116f1576116a2600085600080611c92565b6001600360008373ffffffffffffffffffffffffffffffffffffffff1673ffffffffffffffffffffffffffffffffffffffff168152602001908152602001600020600082825403925050819055505b600073ffffffffffffffffffffffffffffffffffffffff168573ffffffffffffffffffffffffffffffffffffffff1614611774576001600360008773ffffffffffffffffffffffffffffffffffffffff1673ffffffffffffffffffffffffffffffffffffffff168152602001908152602001600020600082825401925050819055505b846002600086815260200190815260200160002060006101000a81548173ffffffffffffffffffffffffffffffffffffffff021916908373ffffffffffffffffffffffffffffffffffffffff160217905550838573ffffffffffffffffffffffffffffffffffffffff168273ffffffffffffffffffffffffffffffffffffffff167fddf252ad1be2c89b69c2b068fc378daa952ba7f163c4a11628f55a4df523b3ef60405160405180910390a4809150509392505050565b611846828260405180602001604052806000815250611f1b565b5050565b600073ffffffffffffffffffffffffffffffffffffffff168273ffffffffffffffffffffffffffffffffffffffff16036118bb57816040517f5b08ba180000000000000000000000000000000000000000000000000000000081526004016118b2919061258e565b60405180910390fd5b80600560008573ffffffffffffffffffffffffffffffffffffffff1673ffffffffffffffffffffffffffffffffffffffff16815260200190815260200160002060008473ffffffffffffffffffffffffffffffffffffffff1673ffffffffffffffffffffffffffffffffffffffff16815260200190815260200160002060006101000a81548160ff0219169083151502179055508173ffffffffffffffffffffffffffffffffffffffff168373ffffffffffffffffffffffffffffffffffffffff167f17307eab39ab6107e8899845ad3d59bd9653f200f220920489ca2b5937696c31836040516119ac9190612480565b60405180910390a3505050565b60008373ffffffffffffffffffffffffffffffffffffffff163b1115611b6a578273ffffffffffffffffffffffffffffffffffffffff1663150b7a026119fd6115f8565b8685856040518563ffffffff1660e01b8152600401611a1f9493929190613493565b6020604051808303816000875af1925050508015611a5b57506040513d601f19601f82011682018060405250810190611a5891906134f4565b60015b611adf573d8060008114611a8b576040519150601f19603f3d011682016040523d82523d6000602084013e611a90565b606091505b506000815103611ad757836040517f64a0ae92000000000000000000000000000000000000000000000000000000008152600401611ace919061258e565b60405180910390fd5b805181602001fd5b63150b7a0260e01b7bffffffffffffffffffffffffffffffffffffffffffffffffffffffff1916817bffffffffffffffffffffffffffffffffffffffffffffffffffffffff191614611b6857836040517f64a0ae92000000000000000000000000000000000000000000000000000000008152600401611b5f919061258e565b60405180910390fd5b505b50505050565b606060405180602001604052806000815250905090565b606060006001611b9684611f37565b01905060008167ffffffffffffffff811115611bb557611bb46128e6565b5b6040519080825280601f01601f191660200182016040528015611be75781602001600182028036833780820191505090505b509050600082602001820190505b600115611c4a578080600190039150507f3031323334353637383961626364656600000000000000000000000000000000600a86061a8153600a8581611c3e57611c3d613521565b5b04945060008503611bf5575b819350505050919050565b60006002600083815260200190815260200160002060009054906101000a900473ffffffffffffffffffffffffffffffffffffffff169050919050565b8080611ccb5750600073ffffffffffffffffffffffffffffffffffffffff168273ffffffffffffffffffffffffffffffffffffffff1614155b15611dff576000611cdb84611533565b9050600073ffffffffffffffffffffffffffffffffffffffff168373ffffffffffffffffffffffffffffffffffffffff1614158015611d4657508273ffffffffffffffffffffffffffffffffffffffff168173ffffffffffffffffffffffffffffffffffffffff1614155b8015611d595750611d5781846112b3565b155b15611d9b57826040517fa9fbf51f000000000000000000000000000000000000000000000000000000008152600401611d92919061258e565b60405180910390fd5b8115611dfd57838573ffffffffffffffffffffffffffffffffffffffff168273ffffffffffffffffffffffffffffffffffffffff167f8c5be1e5ebec7d5bd14f71427d1e84f3dd0314c0f7b2291e5b200ac8c7c3b92560405160405180910390a45b505b836004600085815260200190815260200160002060006101000a81548173ffffffffffffffffffffffffffffffffffffffff021916908373ffffffffffffffffffffffffffffffffffffffff16021790555050505050565b611e6283838361208a565b611f1657600073ffffffffffffffffffffffffffffffffffffffff168373ffffffffffffffffffffffffffffffffffffffff1603611ed757806040517f7e273289000000000000000000000000000000000000000000000000000000008152600401611ece9190612855565b60405180910390fd5b81816040517f177e802f000000000000000000000000000000000000000000000000000000008152600401611f0d929190613550565b60405180910390fd5b505050565b611f25838361214b565b611f3260008484846119b9565b505050565b600080600090507a184f03e93ff9f4daa797ed6e38ed64bf6a1f0100000000000000008310611f95577a184f03e93ff9f4daa797ed6e38ed64bf6a1f0100000000000000008381611f8b57611f8a613521565b5b0492506040810190505b6d04ee2d6d415b85acef81000000008310611fd2576d04ee2d6d415b85acef81000000008381611fc857611fc7613521565b5b0492506020810190505b662386f26fc10000831061200157662386f26fc100008381611ff757611ff6613521565b5b0492506010810190505b6305f5e100831061202a576305f5e10083816120205761201f613521565b5b0492506008810190505b612710831061204f57612710838161204557612044613521565b5b0492506004810190505b60648310612072576064838161206857612067613521565b5b0492506002810190505b600a8310612081576001810190505b80915050919050565b60008073ffffffffffffffffffffffffffffffffffffffff168373ffffffffffffffffffffffffffffffffffffffff161415801561214257508273ffffffffffffffffffffffffffffffffffffffff168473ffffffffffffffffffffffffffffffffffffffff161480612103575061210284846112b3565b5b8061214157508273ffffffffffffffffffffffffffffffffffffffff16612129836115bb565b73ffffffffffffffffffffffffffffffffffffffff16145b5b90509392505050565b600073ffffffffffffffffffffffffffffffffffffffff168273ffffffffffffffffffffffffffffffffffffffff16036121bd5760006040517f64a0ae920000000000000000000000000000000000000000000000000000000081526004016121b4919061258e565b60405180910390fd5b60006121cb83836000611612565b9050600073ffffffffffffffffffffffffffffffffffffffff168173ffffffffffffffffffffffffffffffffffffffff161461223f5760006040517f73c6ac6e000000000000000000000000000000000000000000000000000000008152600401612236919061258e565b60405180910390fd5b505050565b60405180610100016040528060008152602001606081526020016000815260200160008152602001600081526020016060815260200160608152602001606081525090565b6000604051905090565b600080fd5b600080fd5b6000819050919050565b6122b08161229d565b81146122bb57600080fd5b50565b6000813590506122cd816122a7565b92915050565b6000602082840312156122e9576122e8612293565b5b60006122f7848285016122be565b91505092915050565b600081519050919050565b600082825260208201905092915050565b6000819050602082019050919050565b6123358161229d565b82525050565b6000612347838361232c565b60208301905092915050565b6000602082019050919050565b600061236b82612300565b612375818561230b565b93506123808361231c565b8060005b838110156123b1578151612398888261233b565b97506123a383612353565b925050600181019050612384565b5085935050505092915050565b600060208201905081810360008301526123d88184612360565b905092915050565b60007fffffffff0000000000000000000000000000000000000000000000000000000082169050919050565b612415816123e0565b811461242057600080fd5b50565b6000813590506124328161240c565b92915050565b60006020828403121561244e5761244d612293565b5b600061245c84828501612423565b91505092915050565b60008115159050919050565b61247a81612465565b82525050565b60006020820190506124956000830184612471565b92915050565b600081519050919050565b600082825260208201905092915050565b60005b838110156124d55780820151818401526020810190506124ba565b60008484015250505050565b6000601f19601f8301169050919050565b60006124fd8261249b565b61250781856124a6565b93506125178185602086016124b7565b612520816124e1565b840191505092915050565b6000602082019050818103600083015261254581846124f2565b905092915050565b600073ffffffffffffffffffffffffffffffffffffffff82169050919050565b60006125788261254d565b9050919050565b6125888161256d565b82525050565b60006020820190506125a3600083018461257f565b92915050565b6125b28161256d565b81146125bd57600080fd5b50565b6000813590506125cf816125a9565b92915050565b600080604083850312156125ec576125eb612293565b5b60006125fa858286016125c0565b925050602061260b858286016122be565b9150509250929050565b60008060006060848603121561262e5761262d612293565b5b600061263c868287016125c0565b935050602061264d868287016125c0565b925050604061265e868287016122be565b9150509250925092565b6000806040838503121561267f5761267e612293565b5b600061268d858286016122be565b925050602061269e858286016122be565b9150509250929050565b600080604083850312156126bf576126be612293565b5b60006126cd858286016122be565b92505060206126de858286016125c0565b9150509250929050565b600082825260208201905092915050565b60006127048261249b565b61270e81856126e8565b935061271e8185602086016124b7565b612727816124e1565b840191505092915050565b60006101008301600083015161274b600086018261232c565b506020830151848203602086015261276382826126f9565b9150506040830151612778604086018261232c565b50606083015161278b606086018261232c565b50608083015161279e608086018261232c565b5060a083015184820360a08601526127b682826126f9565b91505060c083015184820360c08601526127d082826126f9565b91505060e083015184820360e08601526127ea82826126f9565b9150508091505092915050565b600060208201905081810360008301526128118184612732565b905092915050565b60006020828403121561282f5761282e612293565b5b600061283d848285016125c0565b91505092915050565b61284f8161229d565b82525050565b600060208201905061286a6000830184612846565b92915050565b61287981612465565b811461288457600080fd5b50565b60008135905061289681612870565b92915050565b600080604083850312156128b3576128b2612293565b5b60006128c1858286016125c0565b92505060206128d285828601612887565b9150509250929050565b600080fd5b600080fd5b7f4e487b7100000000000000000000000000000000000000000000000000000000600052604160045260246000fd5b61291e826124e1565b810181811067ffffffffffffffff8211171561293d5761293c6128e6565b5b80604052505050565b6000612950612289565b905061295c8282612915565b919050565b600067ffffffffffffffff82111561297c5761297b6128e6565b5b612985826124e1565b9050602081019050919050565b82818337600083830152505050565b60006129b46129af84612961565b612946565b9050828152602081018484840111156129d0576129cf6128e1565b5b6129db848285612992565b509392505050565b600082601f8301126129f8576129f76128dc565b5b8135612a088482602086016129a1565b91505092915050565b60008060008060808587031215612a2b57612a2a612293565b5b6000612a39878288016125c0565b9450506020612a4a878288016125c0565b9350506040612a5b878288016122be565b925050606085013567ffffffffffffffff811115612a7c57612a7b612298565b5b612a88878288016129e3565b91505092959194509250565b60008060408385031215612aab57612aaa612293565b5b6000612ab9858286016125c0565b9250506020612aca858286016125c0565b9150509250929050565b600067ffffffffffffffff821115612aef57612aee6128e6565b5b612af8826124e1565b9050602081019050919050565b6000612b18612b1384612ad4565b612946565b905082815260208101848484011115612b3457612b336128e1565b5b612b3f848285612992565b509392505050565b600082601f830112612b5c57612b5b6128dc565b5b8135612b6c848260208601612b05565b91505092915050565b60008060008060008060c08789031215612b9257612b91612293565b5b600087013567ffffffffffffffff811115612bb057612baf612298565b5b612bbc89828a01612b47565b9650506020612bcd89828a016122be565b9550506040612bde89828a016122be565b945050606087013567ffffffffffffffff811115612bff57612bfe612298565b5b612c0b89828a01612b47565b935050608087013567ffffffffffffffff811115612c2c57612c2b612298565b5b612c3889828a01612b47565b92505060a087013567ffffffffffffffff811115612c5957612c58612298565b5b612c6589828a01612b47565b9150509295509295509295565b7f4e487b7100000000000000000000000000000000000000000000000000000000600052602260045260246000fd5b60006002820490506001821680612cb957607f821691505b602082108103612ccc57612ccb612c72565b5b50919050565b6000606082019050612ce7600083018661257f565b612cf46020830185612846565b612d01604083018461257f565b949350505050565b7f696e73756666696369656e742066756e64730000000000000000000000000000600082015250565b6000612d3f6012836124a6565b9150612d4a82612d09565b602082019050919050565b60006020820190508181036000830152612d6e81612d32565b9050919050565b7f6e6f207469636b657473206c65667420666f722074686973206576656e740000600082015250565b6000612dab601e836124a6565b9150612db682612d75565b602082019050919050565b60006020820190508181036000830152612dda81612d9e565b9050919050565b7f616c72656164792068617665207469636b657420666f7220746869732065766560008201527f6e74000000000000000000000000000000000000000000000000000000000000602082015250565b6000612e3d6022836124a6565b9150612e4882612de1565b604082019050919050565b60006020820190508181036000830152612e6c81612e30565b9050919050565b7f73656174206f776e65722063616e6e6f742062652061646472657373207a657260008201527f6f00000000000000000000000000000000000000000000000000000000000000602082015250565b6000612ecf6021836124a6565b9150612eda82612e73565b604082019050919050565b60006020820190508181036000830152612efe81612ec2565b9050919050565b7f696e76616c69642073656174206e756d62657200000000000000000000000000600082015250565b6000612f3b6013836124a6565b9150612f4682612f05565b602082019050919050565b60006020820190508181036000830152612f6a81612f2e565b9050919050565b7f4e487b7100000000000000000000000000000000000000000000000000000000600052601160045260246000fd5b6000612fab8261229d565b9150612fb68361229d565b9250828203905081811115612fce57612fcd612f71565b5b92915050565b6000612fdf8261229d565b91507fffffffffffffffffffffffffffffffffffffffffffffffffffffffffffffffff820361301157613010612f71565b5b600182019050919050565b7f6f6e6c79206f776e65722063616e2063616c6c20746869732066756e6374696f60008201527f6e00000000000000000000000000000000000000000000000000000000000000602082015250565b60006130786021836124a6565b91506130838261301c565b604082019050919050565b600060208201905081810360008301526130a78161306b565b9050919050565b600081905092915050565b50565b60006130c96000836130ae565b91506130d4826130b9565b600082019050919050565b60006130ea826130bc565b9150819050919050565b7f7769746864726177616c206661696c6564000000000000000000000000000000600082015250565b600061312a6011836124a6565b9150613135826130f4565b602082019050919050565b600060208201905081810360008301526131598161311d565b9050919050565b600081905092915050565b60006131768261249b565b6131808185613160565b93506131908185602086016124b7565b80840191505092915050565b60006131a8828561316b565b91506131b4828461316b565b91508190509392505050565b60008190508160005260206000209050919050565b60006020601f8301049050919050565b600082821b905092915050565b6000600883026132227fffffffffffffffffffffffffffffffffffffffffffffffffffffffffffffffff826131e5565b61322c86836131e5565b95508019841693508086168417925050509392505050565b6000819050919050565b600061326961326461325f8461229d565b613244565b61229d565b9050919050565b6000819050919050565b6132838361324e565b61329761328f82613270565b8484546131f2565b825550505050565b600090565b6132ac61329f565b6132b781848461327a565b505050565b5b818110156132db576132d06000826132a4565b6001810190506132bd565b5050565b601f821115613320576132f1816131c0565b6132fa846131d5565b81016020851015613309578190505b61331d613315856131d5565b8301826132bc565b50505b505050565b600082821c905092915050565b600061334360001984600802613325565b1980831691505092915050565b600061335c8383613332565b9150826002028217905092915050565b6133758261249b565b67ffffffffffffffff81111561338e5761338d6128e6565b5b6133988254612ca1565b6133a38282856132df565b600060209050601f8311600181146133d657600084156133c4578287015190505b6133ce8582613350565b865550613436565b601f1984166133e4866131c0565b60005b8281101561340c578489015182556001820191506020850194506020810190506133e7565b868310156134295784890151613425601f891682613332565b8355505b6001600288020188555050505b505050505050565b600081519050919050565b600082825260208201905092915050565b60006134658261343e565b61346f8185613449565b935061347f8185602086016124b7565b613488816124e1565b840191505092915050565b60006080820190506134a8600083018761257f565b6134b5602083018661257f565b6134c26040830185612846565b81810360608301526134d4818461345a565b905095945050505050565b6000815190506134ee8161240c565b92915050565b60006020828403121561350a57613509612293565b5b6000613518848285016134df565b91505092915050565b7f4e487b7100000000000000000000000000000000000000000000000000000000600052601260045260246000fd5b6000604082019050613565600083018561257f565b6135726020830184612846565b939250505056fea2646970667358221220bd7fe84b76fca57c36af1fd65e1dc7ba3635e266959954ceac3dd44d7f9f892964736f6c63430008180033",
  "devdoc": {
    "errors": {
      "ERC721IncorrectOwner(address,uint256,address)": [
        {
          "details": "Indicates an error related to the ownership over a particular token. Used in transfers.",
          "params": {
            "owner": "Address of the current owner of a token.",
            "sender": "Address whose tokens are being transferred.",
            "tokenId": "Identifier number of a token."
          }
        }
      ],
      "ERC721InsufficientApproval(address,uint256)": [
        {
          "details": "Indicates a failure with the `operator`s approval. Used in transfers.",
          "params": {
            "operator": "Address that may be allowed to operate on tokens without being their owner.",
            "tokenId": "Identifier number of a token."
          }
        }
      ],
      "ERC721InvalidApprover(address)": [
        {
          "details": "Indicates a failure with the `approver` of a token to be approved. Used in approvals.",
          "params": {
            "approver": "Address initiating an approval operation."
          }
        }
      ],
      "ERC721InvalidOperator(address)": [
        {
          "details": "Indicates a failure with the `operator` to be approved. Used in approvals.",
          "params": {
            "operator": "Address that may be allowed to operate on tokens without being their owner."
          }
        }
      ],
      "ERC721InvalidOwner(address)": [
        {
          "details": "Indicates that an address can't be an owner. For example, `address(0)` is a forbidden owner in EIP-20. Used in balance queries.",
          "params": {
            "owner": "Address of the current owner of a token."
          }
        }
      ],
      "ERC721InvalidReceiver(address)": [
        {
          "details": "Indicates a failure with the token `receiver`. Used in transfers.",
          "params": {
            "receiver": "Address to which tokens are being transferred."
          }
        }
      ],
      "ERC721InvalidSender(address)": [
        {
          "details": "Indicates a failure with the token `sender`. Used in transfers.",
          "params": {
            "sender": "Address whose tokens are being transferred."
          }
        }
      ],
      "ERC721NonexistentToken(uint256)": [
        {
          "details": "Indicates a `tokenId` whose `owner` is the zero address.",
          "params": {
            "tokenId": "Identifier number of a token."
          }
        }
      ]
    },
    "events": {
      "Approval(address,address,uint256)": {
        "details": "Emitted when `owner` enables `approved` to manage the `tokenId` token."
      },
      "ApprovalForAll(address,address,bool)": {
        "details": "Emitted when `owner` enables or disables (`approved`) `operator` to manage all of its assets."
      },
      "Transfer(address,address,uint256)": {
        "details": "Emitted when `tokenId` token is transferred from `from` to `to`."
      }
    },
    "kind": "dev",
    "methods": {
      "approve(address,uint256)": {
        "details": "See {IERC721-approve}."
      },
      "balanceOf(address)": {
        "details": "See {IERC721-balanceOf}."
      },
      "getApproved(uint256)": {
        "details": "See {IERC721-getApproved}."
      },
      "isApprovedForAll(address,address)": {
        "details": "See {IERC721-isApprovedForAll}."
      },
      "name()": {
        "details": "See {IERC721Metadata-name}."
      },
      "ownerOf(uint256)": {
        "details": "See {IERC721-ownerOf}."
      },
      "safeTransferFrom(address,address,uint256)": {
        "details": "See {IERC721-safeTransferFrom}."
      },
      "safeTransferFrom(address,address,uint256,bytes)": {
        "details": "See {IERC721-safeTransferFrom}."
      },
      "setApprovalForAll(address,bool)": {
        "details": "See {IERC721-setApprovalForAll}."
      },
      "supportsInterface(bytes4)": {
        "details": "See {IERC165-supportsInterface}."
      },
      "symbol()": {
        "details": "See {IERC721Metadata-symbol}."
      },
      "tokenURI(uint256)": {
        "details": "See {IERC721Metadata-tokenURI}."
      },
      "transferFrom(address,address,uint256)": {
        "details": "See {IERC721-transferFrom}."
      }
    },
    "version": 1
  },
  "userdoc": {
    "kind": "user",
    "methods": {},
    "version": 1
  },
  "storageLayout": {
    "storage": [
      {
        "astId": 169,
        "contract": "contracts/ticketsPlug.sol:TicketsPlug",
        "label": "_name",
        "offset": 0,
        "slot": "0",
        "type": "t_string_storage"
      },
      {
        "astId": 171,
        "contract": "contracts/ticketsPlug.sol:TicketsPlug",
        "label": "_symbol",
        "offset": 0,
        "slot": "1",
        "type": "t_string_storage"
      },
      {
        "astId": 175,
        "contract": "contracts/ticketsPlug.sol:TicketsPlug",
        "label": "_owners",
        "offset": 0,
        "slot": "2",
        "type": "t_mapping(t_uint256,t_address)"
      },
      {
        "astId": 179,
        "contract": "contracts/ticketsPlug.sol:TicketsPlug",
        "label": "_balances",
        "offset": 0,
        "slot": "3",
        "type": "t_mapping(t_address,t_uint256)"
      },
      {
        "astId": 183,
        "contract": "contracts/ticketsPlug.sol:TicketsPlug",
        "label": "_tokenApprovals",
        "offset": 0,
        "slot": "4",
        "type": "t_mapping(t_uint256,t_address)"
      },
      {
        "astId": 189,
        "contract": "contracts/ticketsPlug.sol:TicketsPlug",
        "label": "_operatorApprovals",
        "offset": 0,
        "slot": "5",
        "type": "t_mapping(t_address,t_mapping(t_address,t_bool))"
      },
      {
        "astId": 2797,
        "contract": "contracts/ticketsPlug.sol:TicketsPlug",
        "label": "totalEvents",
        "offset": 0,
        "slot": "6",
        "type": "t_uint256"
      },
      {
        "astId": 2799,
        "contract": "contracts/ticketsPlug.sol:TicketsPlug",
        "label": "totalSupply",
        "offset": 0,
        "slot": "7",
        "type": "t_uint256"
      },
      {
        "astId": 2821,
        "contract": "contracts/ticketsPlug.sol:TicketsPlug",
        "label": "events",
        "offset": 0,
        "slot": "8",
        "type": "t_mapping(t_uint256,t_struct(Event)2816_storage)"
      },
      {
        "astId": 2826,
        "contract": "contracts/ticketsPlug.sol:TicketsPlug",
        "label": "takenSeats",
        "offset": 0,
        "slot": "9",
        "type": "t_mapping(t_uint256,t_array(t_uint256)dyn_storage)"
      },
      {
        "astId": 2832,
        "contract": "contracts/ticketsPlug.sol:TicketsPlug",
        "label": "hasTicket",
        "offset": 0,
        "slot": "10",
        "type": "t_mapping(t_uint256,t_mapping(t_address,t_bool))"
      },
      {
        "astId": 2838,
        "contract": "contracts/ticketsPlug.sol:TicketsPlug",
        "label": "seatOwner",
        "offset": 0,
        "slot": "11",
        "type": "t_mapping(t_uint256,t_mapping(t_uint256,t_address))"
      }
    ],
    "types": {
      "t_address": {
        "encoding": "inplace",
        "label": "address",
        "numberOfBytes": "20"
      },
      "t_array(t_uint256)dyn_storage": {
        "base": "t_uint256",
        "encoding": "dynamic_array",
        "label": "uint256[]",
        "numberOfBytes": "32"
      },
      "t_bool": {
        "encoding": "inplace",
        "label": "bool",
        "numberOfBytes": "1"
      },
      "t_mapping(t_address,t_bool)": {
        "encoding": "mapping",
        "key": "t_address",
        "label": "mapping(address => bool)",
        "numberOfBytes": "32",
        "value": "t_bool"
      },
      "t_mapping(t_address,t_mapping(t_address,t_bool))": {
        "encoding": "mapping",
        "key": "t_address",
        "label": "mapping(address => mapping(address => bool))",
        "numberOfBytes": "32",
        "value": "t_mapping(t_address,t_bool)"
      },
      "t_mapping(t_address,t_uint256)": {
        "encoding": "mapping",
        "key": "t_address",
        "label": "mapping(address => uint256)",
        "numberOfBytes": "32",
        "value": "t_uint256"
      },
      "t_mapping(t_uint256,t_address)": {
        "encoding": "mapping",
        "key": "t_uint256",
        "label": "mapping(uint256 => address)",
        "numberOfBytes": "32",
        "value": "t_address"
      },
      "t_mapping(t_uint256,t_array(t_uint256)dyn_storage)": {
        "encoding": "mapping",
        "key": "t_uint256",
        "label": "mapping(uint256 => uint256[])",
        "numberOfBytes": "32",
        "value": "t_array(t_uint256)dyn_storage"
      },
      "t_mapping(t_uint256,t_mapping(t_address,t_bool))": {
        "encoding": "mapping",
        "key": "t_uint256",
        "label": "mapping(uint256 => mapping(address => bool))",
        "numberOfBytes": "32",
        "value": "t_mapping(t_address,t_bool)"
      },
      "t_mapping(t_uint256,t_mapping(t_uint256,t_address))": {
        "encoding": "mapping",
        "key": "t_uint256",
        "label": "mapping(uint256 => mapping(uint256 => address))",
        "numberOfBytes": "32",
        "value": "t_mapping(t_uint256,t_address)"
      },
      "t_mapping(t_uint256,t_struct(Event)2816_storage)": {
        "encoding": "mapping",
        "key": "t_uint256",
        "label": "mapping(uint256 => struct TicketsPlug.Event)",
        "numberOfBytes": "32",
        "value": "t_struct(Event)2816_storage"
      },
      "t_string_storage": {
        "encoding": "bytes",
        "label": "string",
        "numberOfBytes": "32"
      },
      "t_struct(Event)2816_storage": {
        "encoding": "inplace",
        "label": "struct TicketsPlug.Event",
        "members": [
          {
            "astId": 2801,
            "contract": "contracts/ticketsPlug.sol:TicketsPlug",
            "label": "id",
            "offset": 0,
            "slot": "0",
            "type": "t_uint256"
          },
          {
            "astId": 2803,
            "contract": "contracts/ticketsPlug.sol:TicketsPlug",
            "label": "name",
            "offset": 0,
            "slot": "1",
            "type": "t_string_storage"
          },
          {
            "astId": 2805,
            "contract": "contracts/ticketsPlug.sol:TicketsPlug",
            "label": "cost",
            "offset": 0,
            "slot": "2",
            "type": "t_uint256"
          },
          {
            "astId": 2807,
            "contract": "contracts/ticketsPlug.sol:TicketsPlug",
            "label": "tickets",
            "offset": 0,
            "slot": "3",
            "type": "t_uint256"
          },
          {
            "astId": 2809,
            "contract": "contracts/ticketsPlug.sol:TicketsPlug",
            "label": "maxTickets",
            "offset": 0,
            "slot": "4",
            "type": "t_uint256"
          },
          {
            "astId": 2811,
            "contract": "contracts/ticketsPlug.sol:TicketsPlug",
            "label": "date",
            "offset": 0,
            "slot": "5",
            "type": "t_string_storage"
          },
          {
            "astId": 2813,
            "contract": "contracts/ticketsPlug.sol:TicketsPlug",
            "label": "time",
            "offset": 0,
            "slot": "6",
            "type": "t_string_storage"
          },
          {
            "astId": 2815,
            "contract": "contracts/ticketsPlug.sol:TicketsPlug",
            "label": "location",
            "offset": 0,
            "slot": "7",
            "type": "t_string_storage"
          }
        ],
        "numberOfBytes": "256"
      },
      "t_uint256": {
        "encoding": "inplace",
        "label": "uint256",
        "numberOfBytes": "32"
      }
    }
  }
}