{
  "address": "0x5FbDB2315678afecb367f032d93F642f64180aa3",
  "abi": [
    {
      "inputs": [],
      "stateMutability": "nonpayable",
      "type": "constructor"
    },
    {
      "inputs": [
        {
          "internalType": "address",
          "name": "sender",
          "type": "address"
        },
        {
          "internalType": "uint256",
          "name": "tokenId",
          "type": "uint256"
        },
        {
          "internalType": "address",
          "name": "owner",
          "type": "address"
        }
      ],
      "name": "ERC721IncorrectOwner",
      "type": "error"
    },
    {
      "inputs": [
        {
          "internalType": "address",
          "name": "operator",
          "type": "address"
        },
        {
          "internalType": "uint256",
          "name": "tokenId",
          "type": "uint256"
        }
      ],
      "name": "ERC721InsufficientApproval",
      "type": "error"
    },
    {
      "inputs": [
        {
          "internalType": "address",
          "name": "approver",
          "type": "address"
        }
      ],
      "name": "ERC721InvalidApprover",
      "type": "error"
    },
    {
      "inputs": [
        {
          "internalType": "address",
          "name": "operator",
          "type": "address"
        }
      ],
      "name": "ERC721InvalidOperator",
      "type": "error"
    },
    {
      "inputs": [
        {
          "internalType": "address",
          "name": "owner",
          "type": "address"
        }
      ],
      "name": "ERC721InvalidOwner",
      "type": "error"
    },
    {
      "inputs": [
        {
          "internalType": "address",
          "name": "receiver",
          "type": "address"
        }
      ],
      "name": "ERC721InvalidReceiver",
      "type": "error"
    },
    {
      "inputs": [
        {
          "internalType": "address",
          "name": "sender",
          "type": "address"
        }
      ],
      "name": "ERC721InvalidSender",
      "type": "error"
    },
    {
      "inputs": [
        {
          "internalType": "uint256",
          "name": "tokenId",
          "type": "uint256"
        }
      ],
      "name": "ERC721NonexistentToken",
      "type": "error"
    },
    {
      "anonymous": false,
      "inputs": [
        {
          "indexed": true,
          "internalType": "address",
          "name": "owner",
          "type": "address"
        },
        {
          "indexed": true,
          "internalType": "address",
          "name": "approved",
          "type": "address"
        },
        {
          "indexed": true,
          "internalType": "uint256",
          "name": "tokenId",
          "type": "uint256"
        }
      ],
      "name": "Approval",
      "type": "event"
    },
    {
      "anonymous": false,
      "inputs": [
        {
          "indexed": true,
          "internalType": "address",
          "name": "owner",
          "type": "address"
        },
        {
          "indexed": true,
          "internalType": "address",
          "name": "operator",
          "type": "address"
        },
        {
          "indexed": false,
          "internalType": "bool",
          "name": "approved",
          "type": "bool"
        }
      ],
      "name": "ApprovalForAll",
      "type": "event"
    },
    {
      "anonymous": false,
      "inputs": [
        {
          "indexed": true,
          "internalType": "address",
          "name": "from",
          "type": "address"
        },
        {
          "indexed": true,
          "internalType": "address",
          "name": "to",
          "type": "address"
        },
        {
          "indexed": true,
          "internalType": "uint256",
          "name": "tokenId",
          "type": "uint256"
        }
      ],
      "name": "Transfer",
      "type": "event"
    },
    {
      "inputs": [
        {
          "internalType": "address",
          "name": "to",
          "type": "address"
        },
        {
          "internalType": "uint256",
          "name": "tokenId",
          "type": "uint256"
        }
      ],
      "name": "approve",
      "outputs": [],
      "stateMutability": "nonpayable",
      "type": "function"
    },
    {
      "inputs": [
        {
          "internalType": "address",
          "name": "owner",
          "type": "address"
        }
      ],
      "name": "balanceOf",
      "outputs": [
        {
          "internalType": "uint256",
          "name": "",
          "type": "uint256"
        }
      ],
      "stateMutability": "view",
      "type": "function"
    },
    {
      "inputs": [
        {
          "internalType": "uint256",
          "name": "id",
          "type": "uint256"
        },
        {
          "internalType": "uint256",
          "name": "seat",
          "type": "uint256"
        }
      ],
      "name": "buyTicket",
      "outputs": [],
      "stateMutability": "payable",
      "type": "function"
    },
    {
      "inputs": [
        {
          "internalType": "uint256",
          "name": "tokenId",
          "type": "uint256"
        }
      ],
      "name": "getApproved",
      "outputs": [
        {
          "internalType": "address",
          "name": "",
          "type": "address"
        }
      ],
      "stateMutability": "view",
      "type": "function"
    },
    {
      "inputs": [
        {
          "internalType": "uint256",
          "name": "id",
          "type": "uint256"
        }
      ],
      "name": "getEvent",
      "outputs": [
        {
          "components": [
            {
              "internalType": "uint256",
              "name": "id",
              "type": "uint256"
            },
            {
              "internalType": "string",
              "name": "name",
              "type": "string"
            },
            {
              "internalType": "uint256",
              "name": "cost",
              "type": "uint256"
            },
            {
              "internalType": "uint256",
              "name": "tickets",
              "type": "uint256"
            },
            {
              "internalType": "uint256",
              "name": "maxTickets",
              "type": "uint256"
            },
            {
              "internalType": "string",
              "name": "date",
              "type": "string"
            },
            {
              "internalType": "string",
              "name": "time",
              "type": "string"
            },
            {
              "internalType": "string",
              "name": "location",
              "type": "string"
            }
          ],
          "internalType": "struct TicketsPlug.Event",
          "name": "",
          "type": "tuple"
        }
      ],
      "stateMutability": "view",
      "type": "function"
    },
    {
      "inputs": [
        {
          "internalType": "uint256",
          "name": "id",
          "type": "uint256"
        }
      ],
      "name": "getTakenSeats",
      "outputs": [
        {
          "internalType": "uint256[]",
          "name": "",
          "type": "uint256[]"
        }
      ],
      "stateMutability": "view",
      "type": "function"
    },
    {
      "inputs": [
        {
          "internalType": "uint256",
          "name": "",
          "type": "uint256"
        },
        {
          "internalType": "address",
          "name": "",
          "type": "address"
        }
      ],
      "name": "hasTicket",
      "outputs": [
        {
          "internalType": "bool",
          "name": "",
          "type": "bool"
        }
      ],
      "stateMutability": "view",
      "type": "function"
    },
    {
      "inputs": [
        {
          "internalType": "address",
          "name": "owner",
          "type": "address"
        },
        {
          "internalType": "address",
          "name": "operator",
          "type": "address"
        }
      ],
      "name": "isApprovedForAll",
      "outputs": [
        {
          "internalType": "bool",
          "name": "",
          "type": "bool"
        }
      ],
      "stateMutability": "view",
      "type": "function"
    },
    {
      "inputs": [
        {
          "internalType": "string",
          "name": "name",
          "type": "string"
        },
        {
          "internalType": "uint256",
          "name": "cost",
          "type": "uint256"
        },
        {
          "internalType": "uint256",
          "name": "tickets",
          "type": "uint256"
        },
        {
          "internalType": "uint256",
          "name": "maxTickets",
          "type": "uint256"
        },
        {
          "internalType": "string",
          "name": "date",
          "type": "string"
        },
        {
          "internalType": "string",
          "name": "time",
          "type": "string"
        },
        {
          "internalType": "string",
          "name": "location",
          "type": "string"
        }
      ],
      "name": "list",
      "outputs": [],
      "stateMutability": "nonpayable",
      "type": "function"
    },
    {
      "inputs": [],
      "name": "name",
      "outputs": [
        {
          "internalType": "string",
          "name": "",
          "type": "string"
        }
      ],
      "stateMutability": "view",
      "type": "function"
    },
    {
      "inputs": [
        {
          "internalType": "uint256",
          "name": "tokenId",
          "type": "uint256"
        }
      ],
      "name": "ownerOf",
      "outputs": [
        {
          "internalType": "address",
          "name": "",
          "type": "address"
        }
      ],
      "stateMutability": "view",
      "type": "function"
    },
    {
      "inputs": [
        {
          "internalType": "address",
          "name": "from",
          "type": "address"
        },
        {
          "internalType": "address",
          "name": "to",
          "type": "address"
        },
        {
          "internalType": "uint256",
          "name": "tokenId",
          "type": "uint256"
        }
      ],
      "name": "safeTransferFrom",
      "outputs": [],
      "stateMutability": "nonpayable",
      "type": "function"
    },
    {
      "inputs": [
        {
          "internalType": "address",
          "name": "from",
          "type": "address"
        },
        {
          "internalType": "address",
          "name": "to",
          "type": "address"
        },
        {
          "internalType": "uint256",
          "name": "tokenId",
          "type": "uint256"
        },
        {
          "internalType": "bytes",
          "name": "data",
          "type": "bytes"
        }
      ],
      "name": "safeTransferFrom",
      "outputs": [],
      "stateMutability": "nonpayable",
      "type": "function"
    },
    {
      "inputs": [
        {
          "internalType": "uint256",
          "name": "",
          "type": "uint256"
        },
        {
          "internalType": "uint256",
          "name": "",
          "type": "uint256"
        }
      ],
      "name": "seatOwner",
      "outputs": [
        {
          "internalType": "address",
          "name": "",
          "type": "address"
        }
      ],
      "stateMutability": "view",
      "type": "function"
    },
    {
      "inputs": [
        {
          "internalType": "address",
          "name": "operator",
          "type": "address"
        },
        {
          "internalType": "bool",
          "name": "approved",
          "type": "bool"
        }
      ],
      "name": "setApprovalForAll",
      "outputs": [],
      "stateMutability": "nonpayable",
      "type": "function"
    },
    {
      "inputs": [
        {
          "internalType": "bytes4",
          "name": "interfaceId",
          "type": "bytes4"
        }
      ],
      "name": "supportsInterface",
      "outputs": [
        {
          "internalType": "bool",
          "name": "",
          "type": "bool"
        }
      ],
      "stateMutability": "view",
      "type": "function"
    },
    {
      "inputs": [],
      "name": "symbol",
      "outputs": [
        {
          "internalType": "string",
          "name": "",
          "type": "string"
        }
      ],
      "stateMutability": "view",
      "type": "function"
    },
    {
      "inputs": [
        {
          "internalType": "uint256",
          "name": "tokenId",
          "type": "uint256"
        }
      ],
      "name": "tokenURI",
      "outputs": [
        {
          "internalType": "string",
          "name": "",
          "type": "string"
        }
      ],
      "stateMutability": "view",
      "type": "function"
    },
    {
      "inputs": [],
      "name": "totalEvents",
      "outputs": [
        {
          "internalType": "uint256",
          "name": "",
          "type": "uint256"
        }
      ],
      "stateMutability": "view",
      "type": "function"
    },
    {
      "inputs": [
        {
          "internalType": "address",
          "name": "from",
          "type": "address"
        },
        {
          "internalType": "address",
          "name": "to",
          "type": "address"
        },
        {
          "internalType": "uint256",
          "name": "tokenId",
          "type": "uint256"
        }
      ],
      "name": "transferFrom",
      "outputs": [],
      "stateMutability": "nonpayable",
      "type": "function"
    },
    {
      "inputs": [],
      "name": "withdraw",
      "outputs": [],
      "stateMutability": "nonpayable",
      "type": "function"
    }
  ],
  "transactionHash": "0xbae9985839f697435acdd1e705abe94fb635adcca05bf22a75da9ac197856279",
  "args": [],
  "numDeployments": 1,
  "solcInputHash": "de98843e781a3de2ae4ad49c4a529748",
  "bytecode": "0x60a06040523480156200001157600080fd5b506040518060400160405280600681526020017f5469636b657400000000000000000000000000000000000000000000000000008152506040518060400160405280600381526020017f544b54000000000000000000000000000000000000000000000000000000000081525081600090816200008f919062000358565b508060019081620000a1919062000358565b5050503373ffffffffffffffffffffffffffffffffffffffff1660808173ffffffffffffffffffffffffffffffffffffffff16815250506200043f565b600081519050919050565b7f4e487b7100000000000000000000000000000000000000000000000000000000600052604160045260246000fd5b7f4e487b7100000000000000000000000000000000000000000000000000000000600052602260045260246000fd5b600060028204905060018216806200016057607f821691505b60208210810362000176576200017562000118565b5b50919050565b60008190508160005260206000209050919050565b60006020601f8301049050919050565b600082821b905092915050565b600060088302620001e07fffffffffffffffffffffffffffffffffffffffffffffffffffffffffffffffff82620001a1565b620001ec8683620001a1565b95508019841693508086168417925050509392505050565b6000819050919050565b6000819050919050565b600062000239620002336200022d8462000204565b6200020e565b62000204565b9050919050565b6000819050919050565b620002558362000218565b6200026d620002648262000240565b848454620001ae565b825550505050565b600090565b6200028462000275565b620002918184846200024a565b505050565b5b81811015620002b957620002ad6000826200027a565b60018101905062000297565b5050565b601f8211156200030857620002d2816200017c565b620002dd8462000191565b81016020851015620002ed578190505b62000305620002fc8562000191565b83018262000296565b50505b505050565b600082821c905092915050565b60006200032d600019846008026200030d565b1980831691505092915050565b60006200034883836200031a565b9150826002028217905092915050565b6200036382620000de565b67ffffffffffffffff8111156200037f576200037e620000e9565b5b6200038b825462000147565b62000398828285620002bd565b600060209050601f831160018114620003d05760008415620003bb578287015190505b620003c785826200033a565b86555062000437565b601f198416620003e0866200017c565b60005b828110156200040a57848901518255600182019150602085019450602081019050620003e3565b868310156200042a578489015162000426601f8916826200031a565b8355505b6001600288020188555050505b505050505050565b6080516135c4620004696000396000818161074e01528181610dab0152610e3b01526135c46000f3fe60806040526004361061012a5760003560e01c80634843d2b1116100ab578063a22cb4651161006f578063a22cb46514610407578063b88d4fde14610430578063ba87068614610459578063bcec36c014610484578063c87b56dd146104c1578063e985e9c5146104fe5761012a565b80634843d2b1146102e85780636352211e146103255780636d1884e01461036257806370a082311461039f57806395d89b41146103dc5761012a565b806310d6cc1c116100f257806310d6cc1c1461023a57806323b872dd14610263578063298ec2081461028c5780633ccfd60b146102a857806342842e0e146102bf5761012a565b80630106b45f1461012f57806301ffc9a71461016c57806306fdde03146101a9578063081812fc146101d4578063095ea7b314610211575b600080fd5b34801561013b57600080fd5b50610156600480360381019061015191906122d3565b61053b565b60405161016391906123be565b60405180910390f35b34801561017857600080fd5b50610193600480360381019061018e9190612438565b6105a6565b6040516101a09190612480565b60405180910390f35b3480156101b557600080fd5b506101be610688565b6040516101cb919061252b565b60405180910390f35b3480156101e057600080fd5b506101fb60048036038101906101f691906122d3565b61071a565b604051610208919061258e565b60405180910390f35b34801561021d57600080fd5b50610238600480360381019061023391906125d5565b610736565b005b34801561024657600080fd5b50610261600480360381019061025c919061274a565b61074c565b005b34801561026f57600080fd5b5061028a6004803603810190610285919061285c565b6108cf565b005b6102a660048036038101906102a191906128af565b6109d1565b005b3480156102b457600080fd5b506102bd610da9565b005b3480156102cb57600080fd5b506102e660048036038101906102e1919061285c565b610f06565b005b3480156102f457600080fd5b5061030f600480360381019061030a91906128ef565b610f26565b60405161031c9190612480565b60405180910390f35b34801561033157600080fd5b5061034c600480360381019061034791906122d3565b610f55565b604051610359919061258e565b60405180910390f35b34801561036e57600080fd5b50610389600480360381019061038491906122d3565b610f67565b6040516103969190612a3e565b60405180910390f35b3480156103ab57600080fd5b506103c660048036038101906103c19190612a60565b611205565b6040516103d39190612a9c565b60405180910390f35b3480156103e857600080fd5b506103f16112bf565b6040516103fe919061252b565b60405180910390f35b34801561041357600080fd5b5061042e60048036038101906104299190612ae3565b611351565b005b34801561043c57600080fd5b5061045760048036038101906104529190612bc4565b611367565b005b34801561046557600080fd5b5061046e611384565b60405161047b9190612a9c565b60405180910390f35b34801561049057600080fd5b506104ab60048036038101906104a691906128af565b61138a565b6040516104b8919061258e565b60405180910390f35b3480156104cd57600080fd5b506104e860048036038101906104e391906122d3565b6113cc565b6040516104f5919061252b565b60405180910390f35b34801561050a57600080fd5b5061052560048036038101906105209190612c47565b611435565b6040516105329190612480565b60405180910390f35b60606009600083815260200190815260200160002080548060200260200160405190810160405280929190818152602001828054801561059a57602002820191906000526020600020905b815481526020019060010190808311610586575b50505050509050919050565b60007f80ac58cd000000000000000000000000000000000000000000000000000000007bffffffffffffffffffffffffffffffffffffffffffffffffffffffff1916827bffffffffffffffffffffffffffffffffffffffffffffffffffffffff1916148061067157507f5b5e139f000000000000000000000000000000000000000000000000000000007bffffffffffffffffffffffffffffffffffffffffffffffffffffffff1916827bffffffffffffffffffffffffffffffffffffffffffffffffffffffff1916145b806106815750610680826114c9565b5b9050919050565b60606000805461069790612cb6565b80601f01602080910402602001604051908101604052809291908181526020018280546106c390612cb6565b80156107105780601f106106e557610100808354040283529160200191610710565b820191906000526020600020905b8154815290600101906020018083116106f357829003601f168201915b5050505050905090565b600061072582611533565b5061072f826115bb565b9050919050565b61074882826107436115f8565b611600565b5050565b7f000000000000000000000000000000000000000000000000000000000000000073ffffffffffffffffffffffffffffffffffffffff163373ffffffffffffffffffffffffffffffffffffffff16146107da576040517f08c379a00000000000000000000000000000000000000000000000000000000081526004016107d190612d59565b60405180910390fd5b600660008154809291906107ed90612da8565b91905055506040518061010001604052806006548152602001888152602001878152602001868152602001858152602001848152602001838152602001828152506008600060065481526020019081526020016000206000820151816000015560208201518160010190816108629190612f9c565b5060408201518160020155606082015181600301556080820151816004015560a08201518160050190816108969190612f9c565b5060c08201518160060190816108ac9190612f9c565b5060e08201518160070190816108c29190612f9c565b5090505050505050505050565b600073ffffffffffffffffffffffffffffffffffffffff168273ffffffffffffffffffffffffffffffffffffffff16036109415760006040517f64a0ae92000000000000000000000000000000000000000000000000000000008152600401610938919061258e565b60405180910390fd5b600061095583836109506115f8565b611612565b90508373ffffffffffffffffffffffffffffffffffffffff168173ffffffffffffffffffffffffffffffffffffffff16146109cb578382826040517f64283d7b0000000000000000000000000000000000000000000000000000000081526004016109c29392919061306e565b60405180910390fd5b50505050565b600082036109de57600080fd5b60065482106109ec57600080fd5b6008600083815260200190815260200160002060020154341015610a45576040517f08c379a0000000000000000000000000000000000000000000000000000000008152600401610a3c906130f1565b60405180910390fd5b6000600860008481526020019081526020016000206003015411610a9e576040517f08c379a0000000000000000000000000000000000000000000000000000000008152600401610a959061315d565b60405180910390fd5b60001515600a600084815260200190815260200160002060003373ffffffffffffffffffffffffffffffffffffffff1673ffffffffffffffffffffffffffffffffffffffff16815260200190815260200160002060009054906101000a900460ff16151514610b42576040517f08c379a0000000000000000000000000000000000000000000000000000000008152600401610b39906131ef565b60405180910390fd5b600073ffffffffffffffffffffffffffffffffffffffff16600b6000848152602001908152602001600020600083815260200190815260200160002060009054906101000a900473ffffffffffffffffffffffffffffffffffffffff1673ffffffffffffffffffffffffffffffffffffffff1603610bf5576040517f08c379a0000000000000000000000000000000000000000000000000000000008152600401610bec90613281565b60405180910390fd5b60086000838152602001908152602001600020600401548110610c4d576040517f08c379a0000000000000000000000000000000000000000000000000000000008152600401610c44906132ed565b60405180910390fd5b6001600860008481526020019081526020016000206003016000828254610c74919061330d565b9250508190555033600b6000848152602001908152602001600020600083815260200190815260200160002060006101000a81548173ffffffffffffffffffffffffffffffffffffffff021916908373ffffffffffffffffffffffffffffffffffffffff1602179055506001600a600084815260200190815260200160002060003373ffffffffffffffffffffffffffffffffffffffff1673ffffffffffffffffffffffffffffffffffffffff16815260200190815260200160002060006101000a81548160ff0219169083151502179055506009600083815260200190815260200160002081908060018154018082558091505060019003906000526020600020016000909190919091505560076000815480929190610d9490612da8565b9190505550610da53360075461182c565b5050565b7f000000000000000000000000000000000000000000000000000000000000000073ffffffffffffffffffffffffffffffffffffffff163373ffffffffffffffffffffffffffffffffffffffff1614610e37576040517f08c379a0000000000000000000000000000000000000000000000000000000008152600401610e2e90612d59565b60405180910390fd5b60007f000000000000000000000000000000000000000000000000000000000000000073ffffffffffffffffffffffffffffffffffffffff1647604051610e7d90613372565b60006040518083038185875af1925050503d8060008114610eba576040519150601f19603f3d011682016040523d82523d6000602084013e610ebf565b606091505b5050905080610f03576040517f08c379a0000000000000000000000000000000000000000000000000000000008152600401610efa906133d3565b60405180910390fd5b50565b610f2183838360405180602001604052806000815250611367565b505050565b600a6020528160005260406000206020528060005260406000206000915091509054906101000a900460ff1681565b6000610f6082611533565b9050919050565b610f6f612244565b600860008381526020019081526020016000206040518061010001604052908160008201548152602001600182018054610fa890612cb6565b80601f0160208091040260200160405190810160405280929190818152602001828054610fd490612cb6565b80156110215780601f10610ff657610100808354040283529160200191611021565b820191906000526020600020905b81548152906001019060200180831161100457829003601f168201915b5050505050815260200160028201548152602001600382015481526020016004820154815260200160058201805461105890612cb6565b80601f016020809104026020016040519081016040528092919081815260200182805461108490612cb6565b80156110d15780601f106110a6576101008083540402835291602001916110d1565b820191906000526020600020905b8154815290600101906020018083116110b457829003601f168201915b505050505081526020016006820180546110ea90612cb6565b80601f016020809104026020016040519081016040528092919081815260200182805461111690612cb6565b80156111635780601f1061113857610100808354040283529160200191611163565b820191906000526020600020905b81548152906001019060200180831161114657829003601f168201915b5050505050815260200160078201805461117c90612cb6565b80601f01602080910402602001604051908101604052809291908181526020018280546111a890612cb6565b80156111f55780601f106111ca576101008083540402835291602001916111f5565b820191906000526020600020905b8154815290600101906020018083116111d857829003601f168201915b5050505050815250509050919050565b60008073ffffffffffffffffffffffffffffffffffffffff168273ffffffffffffffffffffffffffffffffffffffff16036112785760006040517f89c62b6400000000000000000000000000000000000000000000000000000000815260040161126f919061258e565b60405180910390fd5b600360008373ffffffffffffffffffffffffffffffffffffffff1673ffffffffffffffffffffffffffffffffffffffff168152602001908152602001600020549050919050565b6060600180546112ce90612cb6565b80601f01602080910402602001604051908101604052809291908181526020018280546112fa90612cb6565b80156113475780601f1061131c57610100808354040283529160200191611347565b820191906000526020600020905b81548152906001019060200180831161132a57829003601f168201915b5050505050905090565b61136361135c6115f8565b838361184a565b5050565b6113728484846108cf565b61137e848484846119b9565b50505050565b60065481565b600b6020528160005260406000206020528060005260406000206000915091509054906101000a900473ffffffffffffffffffffffffffffffffffffffff1681565b60606113d782611533565b5060006113e2611b70565b90506000815111611402576040518060200160405280600081525061142d565b8061140c84611b87565b60405160200161141d92919061342f565b6040516020818303038152906040525b915050919050565b6000600560008473ffffffffffffffffffffffffffffffffffffffff1673ffffffffffffffffffffffffffffffffffffffff16815260200190815260200160002060008373ffffffffffffffffffffffffffffffffffffffff1673ffffffffffffffffffffffffffffffffffffffff16815260200190815260200160002060009054906101000a900460ff16905092915050565b60007f01ffc9a7000000000000000000000000000000000000000000000000000000007bffffffffffffffffffffffffffffffffffffffffffffffffffffffff1916827bffffffffffffffffffffffffffffffffffffffffffffffffffffffff1916149050919050565b60008061153f83611c55565b9050600073ffffffffffffffffffffffffffffffffffffffff168173ffffffffffffffffffffffffffffffffffffffff16036115b257826040517f7e2732890000000000000000000000000000000000000000000000000000000081526004016115a99190612a9c565b60405180910390fd5b80915050919050565b60006004600083815260200190815260200160002060009054906101000a900473ffffffffffffffffffffffffffffffffffffffff169050919050565b600033905090565b61160d8383836001611c92565b505050565b60008061161e84611c55565b9050600073ffffffffffffffffffffffffffffffffffffffff168373ffffffffffffffffffffffffffffffffffffffff16146116605761165f818486611e57565b5b600073ffffffffffffffffffffffffffffffffffffffff168173ffffffffffffffffffffffffffffffffffffffff16146116f1576116a2600085600080611c92565b6001600360008373ffffffffffffffffffffffffffffffffffffffff1673ffffffffffffffffffffffffffffffffffffffff168152602001908152602001600020600082825403925050819055505b600073ffffffffffffffffffffffffffffffffffffffff168573ffffffffffffffffffffffffffffffffffffffff1614611774576001600360008773ffffffffffffffffffffffffffffffffffffffff1673ffffffffffffffffffffffffffffffffffffffff168152602001908152602001600020600082825401925050819055505b846002600086815260200190815260200160002060006101000a81548173ffffffffffffffffffffffffffffffffffffffff021916908373ffffffffffffffffffffffffffffffffffffffff160217905550838573ffffffffffffffffffffffffffffffffffffffff168273ffffffffffffffffffffffffffffffffffffffff167fddf252ad1be2c89b69c2b068fc378daa952ba7f163c4a11628f55a4df523b3ef60405160405180910390a4809150509392505050565b611846828260405180602001604052806000815250611f1b565b5050565b600073ffffffffffffffffffffffffffffffffffffffff168273ffffffffffffffffffffffffffffffffffffffff16036118bb57816040517f5b08ba180000000000000000000000000000000000000000000000000000000081526004016118b2919061258e565b60405180910390fd5b80600560008573ffffffffffffffffffffffffffffffffffffffff1673ffffffffffffffffffffffffffffffffffffffff16815260200190815260200160002060008473ffffffffffffffffffffffffffffffffffffffff1673ffffffffffffffffffffffffffffffffffffffff16815260200190815260200160002060006101000a81548160ff0219169083151502179055508173ffffffffffffffffffffffffffffffffffffffff168373ffffffffffffffffffffffffffffffffffffffff167f17307eab39ab6107e8899845ad3d59bd9653f200f220920489ca2b5937696c31836040516119ac9190612480565b60405180910390a3505050565b60008373ffffffffffffffffffffffffffffffffffffffff163b1115611b6a578273ffffffffffffffffffffffffffffffffffffffff1663150b7a026119fd6115f8565b8685856040518563ffffffff1660e01b8152600401611a1f94939291906134a8565b6020604051808303816000875af1925050508015611a5b57506040513d601f19601f82011682018060405250810190611a589190613509565b60015b611adf573d8060008114611a8b576040519150601f19603f3d011682016040523d82523d6000602084013e611a90565b606091505b506000815103611ad757836040517f64a0ae92000000000000000000000000000000000000000000000000000000008152600401611ace919061258e565b60405180910390fd5b805181602001fd5b63150b7a0260e01b7bffffffffffffffffffffffffffffffffffffffffffffffffffffffff1916817bffffffffffffffffffffffffffffffffffffffffffffffffffffffff191614611b6857836040517f64a0ae92000000000000000000000000000000000000000000000000000000008152600401611b5f919061258e565b60405180910390fd5b505b50505050565b606060405180602001604052806000815250905090565b606060006001611b9684611f37565b01905060008167ffffffffffffffff811115611bb557611bb461261f565b5b6040519080825280601f01601f191660200182016040528015611be75781602001600182028036833780820191505090505b509050600082602001820190505b600115611c4a578080600190039150507f3031323334353637383961626364656600000000000000000000000000000000600a86061a8153600a8581611c3e57611c3d613536565b5b04945060008503611bf5575b819350505050919050565b60006002600083815260200190815260200160002060009054906101000a900473ffffffffffffffffffffffffffffffffffffffff169050919050565b8080611ccb5750600073ffffffffffffffffffffffffffffffffffffffff168273ffffffffffffffffffffffffffffffffffffffff1614155b15611dff576000611cdb84611533565b9050600073ffffffffffffffffffffffffffffffffffffffff168373ffffffffffffffffffffffffffffffffffffffff1614158015611d4657508273ffffffffffffffffffffffffffffffffffffffff168173ffffffffffffffffffffffffffffffffffffffff1614155b8015611d595750611d578184611435565b155b15611d9b57826040517fa9fbf51f000000000000000000000000000000000000000000000000000000008152600401611d92919061258e565b60405180910390fd5b8115611dfd57838573ffffffffffffffffffffffffffffffffffffffff168273ffffffffffffffffffffffffffffffffffffffff167f8c5be1e5ebec7d5bd14f71427d1e84f3dd0314c0f7b2291e5b200ac8c7c3b92560405160405180910390a45b505b836004600085815260200190815260200160002060006101000a81548173ffffffffffffffffffffffffffffffffffffffff021916908373ffffffffffffffffffffffffffffffffffffffff16021790555050505050565b611e6283838361208a565b611f1657600073ffffffffffffffffffffffffffffffffffffffff168373ffffffffffffffffffffffffffffffffffffffff1603611ed757806040517f7e273289000000000000000000000000000000000000000000000000000000008152600401611ece9190612a9c565b60405180910390fd5b81816040517f177e802f000000000000000000000000000000000000000000000000000000008152600401611f0d929190613565565b60405180910390fd5b505050565b611f25838361214b565b611f3260008484846119b9565b505050565b600080600090507a184f03e93ff9f4daa797ed6e38ed64bf6a1f0100000000000000008310611f95577a184f03e93ff9f4daa797ed6e38ed64bf6a1f0100000000000000008381611f8b57611f8a613536565b5b0492506040810190505b6d04ee2d6d415b85acef81000000008310611fd2576d04ee2d6d415b85acef81000000008381611fc857611fc7613536565b5b0492506020810190505b662386f26fc10000831061200157662386f26fc100008381611ff757611ff6613536565b5b0492506010810190505b6305f5e100831061202a576305f5e10083816120205761201f613536565b5b0492506008810190505b612710831061204f57612710838161204557612044613536565b5b0492506004810190505b60648310612072576064838161206857612067613536565b5b0492506002810190505b600a8310612081576001810190505b80915050919050565b60008073ffffffffffffffffffffffffffffffffffffffff168373ffffffffffffffffffffffffffffffffffffffff161415801561214257508273ffffffffffffffffffffffffffffffffffffffff168473ffffffffffffffffffffffffffffffffffffffff16148061210357506121028484611435565b5b8061214157508273ffffffffffffffffffffffffffffffffffffffff16612129836115bb565b73ffffffffffffffffffffffffffffffffffffffff16145b5b90509392505050565b600073ffffffffffffffffffffffffffffffffffffffff168273ffffffffffffffffffffffffffffffffffffffff16036121bd5760006040517f64a0ae920000000000000000000000000000000000000000000000000000000081526004016121b4919061258e565b60405180910390fd5b60006121cb83836000611612565b9050600073ffffffffffffffffffffffffffffffffffffffff168173ffffffffffffffffffffffffffffffffffffffff161461223f5760006040517f73c6ac6e000000000000000000000000000000000000000000000000000000008152600401612236919061258e565b60405180910390fd5b505050565b60405180610100016040528060008152602001606081526020016000815260200160008152602001600081526020016060815260200160608152602001606081525090565b6000604051905090565b600080fd5b600080fd5b6000819050919050565b6122b08161229d565b81146122bb57600080fd5b50565b6000813590506122cd816122a7565b92915050565b6000602082840312156122e9576122e8612293565b5b60006122f7848285016122be565b91505092915050565b600081519050919050565b600082825260208201905092915050565b6000819050602082019050919050565b6123358161229d565b82525050565b6000612347838361232c565b60208301905092915050565b6000602082019050919050565b600061236b82612300565b612375818561230b565b93506123808361231c565b8060005b838110156123b1578151612398888261233b565b97506123a383612353565b925050600181019050612384565b5085935050505092915050565b600060208201905081810360008301526123d88184612360565b905092915050565b60007fffffffff0000000000000000000000000000000000000000000000000000000082169050919050565b612415816123e0565b811461242057600080fd5b50565b6000813590506124328161240c565b92915050565b60006020828403121561244e5761244d612293565b5b600061245c84828501612423565b91505092915050565b60008115159050919050565b61247a81612465565b82525050565b60006020820190506124956000830184612471565b92915050565b600081519050919050565b600082825260208201905092915050565b60005b838110156124d55780820151818401526020810190506124ba565b60008484015250505050565b6000601f19601f8301169050919050565b60006124fd8261249b565b61250781856124a6565b93506125178185602086016124b7565b612520816124e1565b840191505092915050565b6000602082019050818103600083015261254581846124f2565b905092915050565b600073ffffffffffffffffffffffffffffffffffffffff82169050919050565b60006125788261254d565b9050919050565b6125888161256d565b82525050565b60006020820190506125a3600083018461257f565b92915050565b6125b28161256d565b81146125bd57600080fd5b50565b6000813590506125cf816125a9565b92915050565b600080604083850312156125ec576125eb612293565b5b60006125fa858286016125c0565b925050602061260b858286016122be565b9150509250929050565b600080fd5b600080fd5b7f4e487b7100000000000000000000000000000000000000000000000000000000600052604160045260246000fd5b612657826124e1565b810181811067ffffffffffffffff821117156126765761267561261f565b5b80604052505050565b6000612689612289565b9050612695828261264e565b919050565b600067ffffffffffffffff8211156126b5576126b461261f565b5b6126be826124e1565b9050602081019050919050565b82818337600083830152505050565b60006126ed6126e88461269a565b61267f565b9050828152602081018484840111156127095761270861261a565b5b6127148482856126cb565b509392505050565b600082601f83011261273157612730612615565b5b81356127418482602086016126da565b91505092915050565b600080600080600080600060e0888a03121561276957612768612293565b5b600088013567ffffffffffffffff81111561278757612786612298565b5b6127938a828b0161271c565b97505060206127a48a828b016122be565b96505060406127b58a828b016122be565b95505060606127c68a828b016122be565b945050608088013567ffffffffffffffff8111156127e7576127e6612298565b5b6127f38a828b0161271c565b93505060a088013567ffffffffffffffff81111561281457612813612298565b5b6128208a828b0161271c565b92505060c088013567ffffffffffffffff81111561284157612840612298565b5b61284d8a828b0161271c565b91505092959891949750929550565b60008060006060848603121561287557612874612293565b5b6000612883868287016125c0565b9350506020612894868287016125c0565b92505060406128a5868287016122be565b9150509250925092565b600080604083850312156128c6576128c5612293565b5b60006128d4858286016122be565b92505060206128e5858286016122be565b9150509250929050565b6000806040838503121561290657612905612293565b5b6000612914858286016122be565b9250506020612925858286016125c0565b9150509250929050565b600082825260208201905092915050565b600061294b8261249b565b612955818561292f565b93506129658185602086016124b7565b61296e816124e1565b840191505092915050565b600061010083016000830151612992600086018261232c565b50602083015184820360208601526129aa8282612940565b91505060408301516129bf604086018261232c565b5060608301516129d2606086018261232c565b5060808301516129e5608086018261232c565b5060a083015184820360a08601526129fd8282612940565b91505060c083015184820360c0860152612a178282612940565b91505060e083015184820360e0860152612a318282612940565b9150508091505092915050565b60006020820190508181036000830152612a588184612979565b905092915050565b600060208284031215612a7657612a75612293565b5b6000612a84848285016125c0565b91505092915050565b612a968161229d565b82525050565b6000602082019050612ab16000830184612a8d565b92915050565b612ac081612465565b8114612acb57600080fd5b50565b600081359050612add81612ab7565b92915050565b60008060408385031215612afa57612af9612293565b5b6000612b08858286016125c0565b9250506020612b1985828601612ace565b9150509250929050565b600067ffffffffffffffff821115612b3e57612b3d61261f565b5b612b47826124e1565b9050602081019050919050565b6000612b67612b6284612b23565b61267f565b905082815260208101848484011115612b8357612b8261261a565b5b612b8e8482856126cb565b509392505050565b600082601f830112612bab57612baa612615565b5b8135612bbb848260208601612b54565b91505092915050565b60008060008060808587031215612bde57612bdd612293565b5b6000612bec878288016125c0565b9450506020612bfd878288016125c0565b9350506040612c0e878288016122be565b925050606085013567ffffffffffffffff811115612c2f57612c2e612298565b5b612c3b87828801612b96565b91505092959194509250565b60008060408385031215612c5e57612c5d612293565b5b6000612c6c858286016125c0565b9250506020612c7d858286016125c0565b9150509250929050565b7f4e487b7100000000000000000000000000000000000000000000000000000000600052602260045260246000fd5b60006002820490506001821680612cce57607f821691505b602082108103612ce157612ce0612c87565b5b50919050565b7f6f6e6c79206f776e65722063616e2063616c6c20746869732066756e6374696f60008201527f6e00000000000000000000000000000000000000000000000000000000000000602082015250565b6000612d436021836124a6565b9150612d4e82612ce7565b604082019050919050565b60006020820190508181036000830152612d7281612d36565b9050919050565b7f4e487b7100000000000000000000000000000000000000000000000000000000600052601160045260246000fd5b6000612db38261229d565b91507fffffffffffffffffffffffffffffffffffffffffffffffffffffffffffffffff8203612de557612de4612d79565b5b600182019050919050565b60008190508160005260206000209050919050565b60006020601f8301049050919050565b600082821b905092915050565b600060088302612e527fffffffffffffffffffffffffffffffffffffffffffffffffffffffffffffffff82612e15565b612e5c8683612e15565b95508019841693508086168417925050509392505050565b6000819050919050565b6000612e99612e94612e8f8461229d565b612e74565b61229d565b9050919050565b6000819050919050565b612eb383612e7e565b612ec7612ebf82612ea0565b848454612e22565b825550505050565b600090565b612edc612ecf565b612ee7818484612eaa565b505050565b5b81811015612f0b57612f00600082612ed4565b600181019050612eed565b5050565b601f821115612f5057612f2181612df0565b612f2a84612e05565b81016020851015612f39578190505b612f4d612f4585612e05565b830182612eec565b50505b505050565b600082821c905092915050565b6000612f7360001984600802612f55565b1980831691505092915050565b6000612f8c8383612f62565b9150826002028217905092915050565b612fa58261249b565b67ffffffffffffffff811115612fbe57612fbd61261f565b5b612fc88254612cb6565b612fd3828285612f0f565b600060209050601f8311600181146130065760008415612ff4578287015190505b612ffe8582612f80565b865550613066565b601f19841661301486612df0565b60005b8281101561303c57848901518255600182019150602085019450602081019050613017565b868310156130595784890151613055601f891682612f62565b8355505b6001600288020188555050505b505050505050565b6000606082019050613083600083018661257f565b6130906020830185612a8d565b61309d604083018461257f565b949350505050565b7f696e73756666696369656e742066756e64730000000000000000000000000000600082015250565b60006130db6012836124a6565b91506130e6826130a5565b602082019050919050565b6000602082019050818103600083015261310a816130ce565b9050919050565b7f6e6f207469636b657473206c65667420666f722074686973206576656e740000600082015250565b6000613147601e836124a6565b915061315282613111565b602082019050919050565b600060208201905081810360008301526131768161313a565b9050919050565b7f616c72656164792068617665207469636b657420666f7220746869732065766560008201527f6e74000000000000000000000000000000000000000000000000000000000000602082015250565b60006131d96022836124a6565b91506131e48261317d565b604082019050919050565b60006020820190508181036000830152613208816131cc565b9050919050565b7f73656174206f776e65722063616e6e6f742062652061646472657373207a657260008201527f6f00000000000000000000000000000000000000000000000000000000000000602082015250565b600061326b6021836124a6565b91506132768261320f565b604082019050919050565b6000602082019050818103600083015261329a8161325e565b9050919050565b7f696e76616c69642073656174206e756d62657200000000000000000000000000600082015250565b60006132d76013836124a6565b91506132e2826132a1565b602082019050919050565b60006020820190508181036000830152613306816132ca565b9050919050565b60006133188261229d565b91506133238361229d565b925082820390508181111561333b5761333a612d79565b5b92915050565b600081905092915050565b50565b600061335c600083613341565b91506133678261334c565b600082019050919050565b600061337d8261334f565b9150819050919050565b7f7769746864726177616c206661696c6564000000000000000000000000000000600082015250565b60006133bd6011836124a6565b91506133c882613387565b602082019050919050565b600060208201905081810360008301526133ec816133b0565b9050919050565b600081905092915050565b60006134098261249b565b61341381856133f3565b93506134238185602086016124b7565b80840191505092915050565b600061343b82856133fe565b915061344782846133fe565b91508190509392505050565b600081519050919050565b600082825260208201905092915050565b600061347a82613453565b613484818561345e565b93506134948185602086016124b7565b61349d816124e1565b840191505092915050565b60006080820190506134bd600083018761257f565b6134ca602083018661257f565b6134d76040830185612a8d565b81810360608301526134e9818461346f565b905095945050505050565b6000815190506135038161240c565b92915050565b60006020828403121561351f5761351e612293565b5b600061352d848285016134f4565b91505092915050565b7f4e487b7100000000000000000000000000000000000000000000000000000000600052601260045260246000fd5b600060408201905061357a600083018561257f565b6135876020830184612a8d565b939250505056fea2646970667358221220db0d8083633b3dc068ff3e572a30b3cc38cba197146732cc4ebe6e9fec178cea64736f6c63430008180033",
  "devdoc": {
    "errors": {
      "ERC721IncorrectOwner(address,uint256,address)": [
        {
          "details": "Indicates an error related to the ownership over a particular token. Used in transfers.",
          "params": {
            "owner": "Address of the current owner of a token.",
            "sender": "Address whose tokens are being transferred.",
            "tokenId": "Identifier number of a token."
          }
        }
      ],
      "ERC721InsufficientApproval(address,uint256)": [
        {
          "details": "Indicates a failure with the `operator`s approval. Used in transfers.",
          "params": {
            "operator": "Address that may be allowed to operate on tokens without being their owner.",
            "tokenId": "Identifier number of a token."
          }
        }
      ],
      "ERC721InvalidApprover(address)": [
        {
          "details": "Indicates a failure with the `approver` of a token to be approved. Used in approvals.",
          "params": {
            "approver": "Address initiating an approval operation."
          }
        }
      ],
      "ERC721InvalidOperator(address)": [
        {
          "details": "Indicates a failure with the `operator` to be approved. Used in approvals.",
          "params": {
            "operator": "Address that may be allowed to operate on tokens without being their owner."
          }
        }
      ],
      "ERC721InvalidOwner(address)": [
        {
          "details": "Indicates that an address can't be an owner. For example, `address(0)` is a forbidden owner in EIP-20. Used in balance queries.",
          "params": {
            "owner": "Address of the current owner of a token."
          }
        }
      ],
      "ERC721InvalidReceiver(address)": [
        {
          "details": "Indicates a failure with the token `receiver`. Used in transfers.",
          "params": {
            "receiver": "Address to which tokens are being transferred."
          }
        }
      ],
      "ERC721InvalidSender(address)": [
        {
          "details": "Indicates a failure with the token `sender`. Used in transfers.",
          "params": {
            "sender": "Address whose tokens are being transferred."
          }
        }
      ],
      "ERC721NonexistentToken(uint256)": [
        {
          "details": "Indicates a `tokenId` whose `owner` is the zero address.",
          "params": {
            "tokenId": "Identifier number of a token."
          }
        }
      ]
    },
    "events": {
      "Approval(address,address,uint256)": {
        "details": "Emitted when `owner` enables `approved` to manage the `tokenId` token."
      },
      "ApprovalForAll(address,address,bool)": {
        "details": "Emitted when `owner` enables or disables (`approved`) `operator` to manage all of its assets."
      },
      "Transfer(address,address,uint256)": {
        "details": "Emitted when `tokenId` token is transferred from `from` to `to`."
      }
    },
    "kind": "dev",
    "methods": {
      "approve(address,uint256)": {
        "details": "See {IERC721-approve}."
      },
      "balanceOf(address)": {
        "details": "See {IERC721-balanceOf}."
      },
      "getApproved(uint256)": {
        "details": "See {IERC721-getApproved}."
      },
      "isApprovedForAll(address,address)": {
        "details": "See {IERC721-isApprovedForAll}."
      },
      "name()": {
        "details": "See {IERC721Metadata-name}."
      },
      "ownerOf(uint256)": {
        "details": "See {IERC721-ownerOf}."
      },
      "safeTransferFrom(address,address,uint256)": {
        "details": "See {IERC721-safeTransferFrom}."
      },
      "safeTransferFrom(address,address,uint256,bytes)": {
        "details": "See {IERC721-safeTransferFrom}."
      },
      "setApprovalForAll(address,bool)": {
        "details": "See {IERC721-setApprovalForAll}."
      },
      "supportsInterface(bytes4)": {
        "details": "See {IERC165-supportsInterface}."
      },
      "symbol()": {
        "details": "See {IERC721Metadata-symbol}."
      },
      "tokenURI(uint256)": {
        "details": "See {IERC721Metadata-tokenURI}."
      },
      "transferFrom(address,address,uint256)": {
        "details": "See {IERC721-transferFrom}."
      }
    },
    "version": 1
  },
  "userdoc": {
    "kind": "user",
    "methods": {},
    "version": 1
  },
  "storageLayout": {
    "storage": [
      {
        "astId": 169,
        "contract": "contracts/ticketsPlug.sol:TicketsPlug",
        "label": "_name",
        "offset": 0,
        "slot": "0",
        "type": "t_string_storage"
      },
      {
        "astId": 171,
        "contract": "contracts/ticketsPlug.sol:TicketsPlug",
        "label": "_symbol",
        "offset": 0,
        "slot": "1",
        "type": "t_string_storage"
      },
      {
        "astId": 175,
        "contract": "contracts/ticketsPlug.sol:TicketsPlug",
        "label": "_owners",
        "offset": 0,
        "slot": "2",
        "type": "t_mapping(t_uint256,t_address)"
      },
      {
        "astId": 179,
        "contract": "contracts/ticketsPlug.sol:TicketsPlug",
        "label": "_balances",
        "offset": 0,
        "slot": "3",
        "type": "t_mapping(t_address,t_uint256)"
      },
      {
        "astId": 183,
        "contract": "contracts/ticketsPlug.sol:TicketsPlug",
        "label": "_tokenApprovals",
        "offset": 0,
        "slot": "4",
        "type": "t_mapping(t_uint256,t_address)"
      },
      {
        "astId": 189,
        "contract": "contracts/ticketsPlug.sol:TicketsPlug",
        "label": "_operatorApprovals",
        "offset": 0,
        "slot": "5",
        "type": "t_mapping(t_address,t_mapping(t_address,t_bool))"
      },
      {
        "astId": 2797,
        "contract": "contracts/ticketsPlug.sol:TicketsPlug",
        "label": "totalEvents",
        "offset": 0,
        "slot": "6",
        "type": "t_uint256"
      },
      {
        "astId": 2799,
        "contract": "contracts/ticketsPlug.sol:TicketsPlug",
        "label": "totalSupply",
        "offset": 0,
        "slot": "7",
        "type": "t_uint256"
      },
      {
        "astId": 2821,
        "contract": "contracts/ticketsPlug.sol:TicketsPlug",
        "label": "events",
        "offset": 0,
        "slot": "8",
        "type": "t_mapping(t_uint256,t_struct(Event)2816_storage)"
      },
      {
        "astId": 2826,
        "contract": "contracts/ticketsPlug.sol:TicketsPlug",
        "label": "takenSeats",
        "offset": 0,
        "slot": "9",
        "type": "t_mapping(t_uint256,t_array(t_uint256)dyn_storage)"
      },
      {
        "astId": 2832,
        "contract": "contracts/ticketsPlug.sol:TicketsPlug",
        "label": "hasTicket",
        "offset": 0,
        "slot": "10",
        "type": "t_mapping(t_uint256,t_mapping(t_address,t_bool))"
      },
      {
        "astId": 2838,
        "contract": "contracts/ticketsPlug.sol:TicketsPlug",
        "label": "seatOwner",
        "offset": 0,
        "slot": "11",
        "type": "t_mapping(t_uint256,t_mapping(t_uint256,t_address))"
      }
    ],
    "types": {
      "t_address": {
        "encoding": "inplace",
        "label": "address",
        "numberOfBytes": "20"
      },
      "t_array(t_uint256)dyn_storage": {
        "base": "t_uint256",
        "encoding": "dynamic_array",
        "label": "uint256[]",
        "numberOfBytes": "32"
      },
      "t_bool": {
        "encoding": "inplace",
        "label": "bool",
        "numberOfBytes": "1"
      },
      "t_mapping(t_address,t_bool)": {
        "encoding": "mapping",
        "key": "t_address",
        "label": "mapping(address => bool)",
        "numberOfBytes": "32",
        "value": "t_bool"
      },
      "t_mapping(t_address,t_mapping(t_address,t_bool))": {
        "encoding": "mapping",
        "key": "t_address",
        "label": "mapping(address => mapping(address => bool))",
        "numberOfBytes": "32",
        "value": "t_mapping(t_address,t_bool)"
      },
      "t_mapping(t_address,t_uint256)": {
        "encoding": "mapping",
        "key": "t_address",
        "label": "mapping(address => uint256)",
        "numberOfBytes": "32",
        "value": "t_uint256"
      },
      "t_mapping(t_uint256,t_address)": {
        "encoding": "mapping",
        "key": "t_uint256",
        "label": "mapping(uint256 => address)",
        "numberOfBytes": "32",
        "value": "t_address"
      },
      "t_mapping(t_uint256,t_array(t_uint256)dyn_storage)": {
        "encoding": "mapping",
        "key": "t_uint256",
        "label": "mapping(uint256 => uint256[])",
        "numberOfBytes": "32",
        "value": "t_array(t_uint256)dyn_storage"
      },
      "t_mapping(t_uint256,t_mapping(t_address,t_bool))": {
        "encoding": "mapping",
        "key": "t_uint256",
        "label": "mapping(uint256 => mapping(address => bool))",
        "numberOfBytes": "32",
        "value": "t_mapping(t_address,t_bool)"
      },
      "t_mapping(t_uint256,t_mapping(t_uint256,t_address))": {
        "encoding": "mapping",
        "key": "t_uint256",
        "label": "mapping(uint256 => mapping(uint256 => address))",
        "numberOfBytes": "32",
        "value": "t_mapping(t_uint256,t_address)"
      },
      "t_mapping(t_uint256,t_struct(Event)2816_storage)": {
        "encoding": "mapping",
        "key": "t_uint256",
        "label": "mapping(uint256 => struct TicketsPlug.Event)",
        "numberOfBytes": "32",
        "value": "t_struct(Event)2816_storage"
      },
      "t_string_storage": {
        "encoding": "bytes",
        "label": "string",
        "numberOfBytes": "32"
      },
      "t_struct(Event)2816_storage": {
        "encoding": "inplace",
        "label": "struct TicketsPlug.Event",
        "members": [
          {
            "astId": 2801,
            "contract": "contracts/ticketsPlug.sol:TicketsPlug",
            "label": "id",
            "offset": 0,
            "slot": "0",
            "type": "t_uint256"
          },
          {
            "astId": 2803,
            "contract": "contracts/ticketsPlug.sol:TicketsPlug",
            "label": "name",
            "offset": 0,
            "slot": "1",
            "type": "t_string_storage"
          },
          {
            "astId": 2805,
            "contract": "contracts/ticketsPlug.sol:TicketsPlug",
            "label": "cost",
            "offset": 0,
            "slot": "2",
            "type": "t_uint256"
          },
          {
            "astId": 2807,
            "contract": "contracts/ticketsPlug.sol:TicketsPlug",
            "label": "tickets",
            "offset": 0,
            "slot": "3",
            "type": "t_uint256"
          },
          {
            "astId": 2809,
            "contract": "contracts/ticketsPlug.sol:TicketsPlug",
            "label": "maxTickets",
            "offset": 0,
            "slot": "4",
            "type": "t_uint256"
          },
          {
            "astId": 2811,
            "contract": "contracts/ticketsPlug.sol:TicketsPlug",
            "label": "date",
            "offset": 0,
            "slot": "5",
            "type": "t_string_storage"
          },
          {
            "astId": 2813,
            "contract": "contracts/ticketsPlug.sol:TicketsPlug",
            "label": "time",
            "offset": 0,
            "slot": "6",
            "type": "t_string_storage"
          },
          {
            "astId": 2815,
            "contract": "contracts/ticketsPlug.sol:TicketsPlug",
            "label": "location",
            "offset": 0,
            "slot": "7",
            "type": "t_string_storage"
          }
        ],
        "numberOfBytes": "256"
      },
      "t_uint256": {
        "encoding": "inplace",
        "label": "uint256",
        "numberOfBytes": "32"
      }
    }
  }
}